:020000040800F2
:100000006815002099010008C3190008311600087E
:10001000C119000829020008951E00080000000010
:1000200000000000000000000000000001010008C6
:100030002B02000800000000450100085D1A0008BE
:10004000B3010008B3010008B3010008B3010008C0
:10005000B3010008B3010008B3010008B3010008B0
:10006000B3010008B3010008B3010008B3010008A0
:10007000B3010008B3010008B3010008B301000890
:10008000B3010008B3010008B3010008B301000880
:10009000B3010008B3010008B3010008B301000870
:1000A000B3010008B3010008B3010008B301000860
:1000B000B3010008B3010008851B0008B301000864
:1000C000B3010008B3010008B3010008B301000840
:1000D000B3010008451E0008B3010008B301000881
:1000E000B3010008B3010008B3010008DFF80CD029
:1000F00000F088F8004800479121000868150020AA
:10010000224B19680868B0E8F00F80F30988BFF344
:100110006F8F4FF0000080F311884EF00D0E704786
:100120000000000006480068006880F3088862B696
:1001300061B6BFF34F8FBFF36F8F00DF00BF00BF0B
:1001400008ED00E0EFF30980BFF36F8F0F4B1A68E3
:1001500020E9F00F106008B54FF0500080F31188CF
:10016000BFF34F8FBFF36F8F02F09CFC4FF0000086
:1001700080F31188BDE8084019680868B0E8F00FFE
:1001800080F30988BFF36F8F704700BF2C000020F9
:10019000EFF3058070470000064880470648004797
:1001A000FEE7FEE7FEE7FEE7FEE7FEE7FEE7FEE727
:1001B000FEE7FEE73D1B0008ED00000840EA0103F2
:1001C0009B0703D009E008C9121F08C0042AFAD20D
:1001D00003E011F8013B00F8013B521EF9D27047D1
:1001E000D2B201E000F8012B491EFBD27047002279
:1001F000F6E710B513460A4604461946FFF7F0FF26
:10020000204610BD064C074D06E0E06840F00103B3
:1002100094E8070098471034AC42F6D3FFF76AFF22
:10022000202F0008402F0008FEE77047F8B50F4C5C
:1002300007460F4E20784FF47A7540F00400207086
:100240000095012322463178384600F0CDFA01208E
:1002500001F0A8FE2078012320F004002070009512
:1002600022463178384600F0BFFAF8BD0000002081
:100270001800002010B590F821100024022903D0A6
:100280000421816301243DE001680A6822F00E0226
:100290000A6001680A6822F001020A601A4A0168CD
:1002A000914201D1012121E0174A1432914201D13A
:1002B00010211BE0144A2832914201D1891515E022
:1002C000114A3C32914201D189140FE00E4A50325A
:1002D000914202D14FF4803108E00B4A64329142DE
:1002E00002D14FF4801101E04FF08071064A083AC4
:1002F0005160012180F82110002180F82010416B0D
:1003000001B18847204610BD080002402DE9F84F92
:10031000DFF8B891002409F1040A0AF1040B23461E
:100320000F270BF1040EC9E00125A5402A40AA427F
:100330007DD1674ED1F804C0ACEB0608B44532D08D
:1003400014DCBCF1030F3AD009DCBCF1000F2AD059
:10035000BCF1010F1CD0BCF1020F31D11DE0BCF18A
:10036000110F17D0BCF1120F2AD119E0B8F5881F70
:1003700019D006DCB8F5803F15D0B8F5801F1FD125
:1003800011E0B8F5001F0ED0B8F5041F18D10AE02F
:10039000CB6815E0CB681B1D12E0CB6808330FE07B
:1003A000CB680C330CE08B682BB1012B4FF00803AA
:1003B00003D0456104E0042302E0056100E000236E
:1003C000FF2A01D8064601E000F104064FEA840541
:1003D00001D9A5F12005D6F8008007FA05FC28EA26
:1003E0000C0803FA05F548EA0508C6F800804D68D0
:1003F000ED0062D5374DAE6946F00106AE61AD69DC
:1004000024F0030605F001050095334D06EB050CBD
:10041000DCF80850A607360F07FA06F825EA0805A3
:10042000DFF8B880404503D14FF0000817E044E002
:10043000DFF8AC80404502D14FF001080FE0DFF853
:10044000A480404502D14FF0020808E0DFF8988010
:10045000404502D14FF0030801E04FF0040808FACC
:1004600006F848EA0508CCF808804D68D9F800601D
:10047000ED034D4601D5164300E096432E604D68CE
:10048000DAF80060AD03554601D5164300E0964307
:100490002E604D68DBF80060ED025D4601D5164325
:1004A00000E096432E604D68DEF80060AD027546B0
:1004B00001D5164300E096432E60641C0D682A4661
:1004C000E5407FF431AFBDE8F88F00000004014043
:1004D000000011100010024000000140000801401F
:1004E000000C0140001001400014014080680840E9
:1004F00000D001207047C2680A4201D041617047B4
:10050000016170470AB1016170470904FBE700000F
:1005100001488068704700002000002070B504008A
:100520001BD094F83D00002520B984F83C502046AB
:1005300000F0F0F9242084F83D002068016821F0E3
:100540000101016000F08CFB4D4A6168914201D8C5
:100550004C4900E04C49884201D2012070BD4B4912
:100560002368B0FBF1F15E6826F03F060E435E6043
:100570006368934206D94FF4967359434FF47A73E4
:10058000B1FBF3F12368491C1E6A26F03F06314394
:1005900019626168914210D84900401EB0FBF1F227
:1005A000521CC2F30B02042A01D2042022E0B0FB49
:1005B000F1F0401CC0F30B001CE0A368F3B301EBA7
:1005C000C10202EB0116421EB2FBF6F2521C42F4CB
:1005D0008042120549D093B301EBC10202EB011135
:1005E000401EB0FBF1F0401CC0F30B0040F4804013
:1005F00040F400402168CA694CF6FF739A431043E7
:10060000C861D4E90701084321680A6822F0C002E2
:1006100010430860D4E9030101432068826848F26E
:10062000FF339A4311438160D4E9050108432168EF
:10063000CA6822F0FF021043C86001E00EE016E035
:100640002068016841F0010101602564202084F8E0
:100650003D00256384F83E50002070BD01EB41064B
:10066000421EB2FBF6F2521CB3E70120C2E701EBD7
:100670004101401EB0FBF1F0401CC0F30B00B7E796
:10068000A086010080841E0000093D0040420F004A
:100690002DE9FF4F81B089460446FFF739FF054633
:1006A00094F83D004FF0010820287AD11923012247
:1006B0004B492046009501F03DF8002871D194F88F
:1006C0003C0001286DD0012084F83C0020680168BE
:1006D000C90703D1016841F0010101602068016888
:1006E00021F400610160242084F83D000026266486
:1006F0003C48E0624FF0011B20272068016841F46C
:10070000807101600095002259462046049B01F04B
:1007100011F8002856D1216809F0FE000861FFF7A2
:10072000F7FE2168054648694969C0F34000C1F3F6
:1007300080214FF0A00A0FE0FFF7EAFE411B04986A
:10074000814200D808B984F83DA021684869496908
:10075000C0F34000C1F3802194F83D20A02A02D0CC
:1007600008B90029E8D084F83D7020684169C94380
:10077000890717D4016841F400710160206841695C
:1007800080691923012216492046009500F0D2FF06
:10079000C0B984F83D7084F83C60002005B0BDE825
:1007A000F08F1BE0016841F40071016021686FF473
:1007B000806048611923012209492046009500F014
:1007C000B9FF08B10120E9E7039808F10108804565
:1007D00093D384F83D7084F83C60F3E70220DDE7B2
:1007E000020010000000FFFF2DE9F84F1F46904661
:1007F0008A460446DDF82890FFF78AFE054694F8FD
:100800003D0020287FD11923012240492046009530
:1008100000F090FF002876D194F83C00012872D0B7
:10082000012084F83C0020680168C90703D10168F1
:1008300041F0010101602068016821F4006101605C
:10084000212084F83D00102084F83E000026266414
:10085000C4F824806785608D20852D48E0622B4692
:100860004A465146204600F0FBFE90B92068416997
:100870008069009036E02A464946204600F0D9FFBC
:1008800050B1206C042804D12068016841F4007143
:1008900001600120BDE8F88F606A21680078086176
:1008A000606A401C6062618D491E6185218D491E10
:1008B00089B2218522685369DB435B070BD451B1B0
:1008C00000781061606A401C6062608D401E608527
:1008D000208D401E20852A464946204600F004FF10
:1008E0000028CED1208D0028C5D154F83D0B0168D9
:1008F00041F400710160202004F81E09E677667754
:100900000020C7E7FFE70220C4E700000200100054
:100910000000FFFF10B586B0002100910191029107
:10092000039100681349884222D1134CA06940F01A
:100930000800A061A069694600F0080004904FF427
:100940004070009012200190032003900B48FFF7A5
:10095000DDFC0B48416841F0E06141F0020141607B
:10096000E06940F40010E061E06900F400100490D8
:1009700006B010BD0054004000100240000C0140C1
:10098000000001400248816802781144816070478C
:1009900020000020074810B5016841F010010160F7
:1009A000032000F095F8002000F006F800F03EF873
:1009B000002010BD0020024000B5014687B0002293
:1009C0001E2000F065F81E2000F054F81348C1699D
:1009D00041F00401C161C06905A900F0040006905E
:1009E000684600F01DF900F03BF90D490D4AB0FBD7
:1009F000F1F10D48491E0260416040F2E7320021EA
:100A0000C0E90321816000F034FB10B1012007B080
:100A100000BD054800F05CFBF9E700000010024053
:100A200040420F0000080040340400200F4808B581
:100A3000816941F001018161816901F00101009149
:100A4000C16941F08051C161C069002200F080504D
:100A500000900F21901E00F01BF80548416821F01E
:100A6000E06141F00071416008BD000000100240EB
:100A700000000140002809DB00F01F020121914025
:100A80004009800000F1E020C0F80011704700002C
:100A9000F0B40E4B1B680C46C3F30223C3F10705E9
:100AA000042D00D90425191D072901D2002300E0D7
:100AB000DB1E012606FA05F1491E214099409E40A1
:100AC000761E16403143F0BC01F024BA0CED00E074
:100AD000064900F0070208684FF6FF03184040EA95
:100AE0000220034A10430860704700000CED00E04C
:100AF0000000FA052DE9F0470F46050061D0434E8E
:100B0000306800F00700B84209D2306820F00700D2
:100B100038433060306800F00700B84251D128688F
:100B20003B4C810712D5400703D5606840F4E06074
:100B300060602878000703D5606840F4605060600A
:100B40006068A96820F0F000084360602878C0075A
:100B500028D06868012810D02168022810D08907A1
:100B600000292EDA616821F0030101436160FFF77B
:100B7000CFFC804641F288390DE021688903EFE718
:100B80008901EDE7FFF7C4FCA0EB0801494502D954
:100B90000320BDE8F0876068696800F00C00B0EBE6
:100BA000810FEFD1306800F00700B8420BD93068F0
:100BB00020F0070038433060306800F00700B8428A
:100BC00001D00120E5E72878400705D56068E9688D
:100BD00020F4E060084360602878000706D560686C
:100BE000296920F4605040EAC100606000F058F8C4
:100BF0006168084AC1F30311515CC84006490860A6
:100C000006480068FFF7D8FE0020C2E70020024037
:100C100000100240F02E00081C00002024000020DC
:100C20000F2202600C4A536803F0030343605368C9
:100C300003F0F0038360536803F4E063C360526819
:100C40004FF4E06303EAD20202610448006800F056
:100C500007000860704700000010024000200240BA
:100C60000448054900684968044AC1F30221515CFF
:100C7000C84070471C00002000100240002F0008F0
:100C80000448054900684968044AC1F3C221515C1F
:100C9000C84070471C00002000100240002F0008D0
:100CA00012A185B00FC98DE80F0014A0144A006886
:100CB00004905168134801F00C03042B10D0082B4A
:100CC0000ED1C1F38343C9031DF803000AD551684F
:100CD00004AAC1F34041515C0A4A5043B0FBF1F011
:100CE00005B0704708494843FAE7000002030405CD
:100CF000060708090A0B0C0D0E0F10100102000068
:100D00000010024000127A0000093D002DE9F84F62
:100D1000040070D02078C04DC00749D06868C0F387
:100D20008100012807D06868C0F38100022809D13A
:100D30006868C00306D52868800339D56068002834
:100D4000E7D035E06068B0F5803F0BD010B1B0F56A
:100D5000A02F11D0286820F480302860286820F463
:100D6000802002E0286840F480302860606890B1FC
:100D7000FFF7CEFB06460AE0286840F48020286092
:100D8000F0E700BFFFF7C4FB801B642873D8286816
:100D90008003F7D50CE0FFF7BBFB064605E000BF7C
:100DA000FFF7B6FB801B6428F0D828688003F7D4CF
:100DB00020789A4E80074FF001094FF0000839D58E
:100DC000686810F00C0F07D06868C0F38100022833
:100DD00009D16868C00306D42868800714D5206943
:100DE000012808D110E02069B0B1C6F80090FFF7E3
:100DF0008FFB074605E00AE1FFF78AFBC01B0228CC
:100E0000C4D828688007F7D52868616920F0F80001
:100E100040EAC10028600DE0C6F80080FFF778FBCB
:100E2000074604E0FFF774FBC01B022823D828689C
:100E30008007F7D4207800072CD57948A169D9B16B
:100E4000C0F80090FFF764FB074604E0FFF760FB83
:100E5000C01B02280FD8686A8007F7D571484FF485
:100E6000FA510068B0FBF1F0009000BF0098411EFD
:100E70000091FAD20EE080E0C0F80080FFF748FB56
:100E8000074604E0FFF744FBC01B022875D8686AD8
:100E90008007F7D42078400760D5E8690027C000B4
:100EA00008D4E86940F08050E861E869012700F063
:100EB000805000905C480168C90513D401688346DE
:100EC00041F480710160FFF723FB824606E000BF1A
:100ED000FFF71EFBA0EB0A0064284ED8DBF80000E9
:100EE000C005F5D5E06801280AD008B1052813D05F
:100EF000286A20F001002862286A20F0040002E03D
:100F0000286A40F001002862E06841F2883B98B10D
:100F1000FFF7FEFA82460BE0286A40F004002862E0
:100F2000EEE700BFFFF7F4FAA0EB0A0159455AD8E3
:100F3000286A8007F6D50CE0FFF7EAFA824605E05A
:100F4000FFF7E6FAA0EB0A0159454CD8286A80075A
:100F5000F6D41FB1E86920F08050E861E06988B3F9
:100F60006968C1F38101022944D00228C6F8608073
:100F700004D0FFF7CDFA044638E034E0FFF7C8FAB2
:100F8000074604E0FFF7C4FAC01B02282BD82868E4
:100F90008001F7D4206AB0F5803F05D16868A16868
:100FA00020F4003008436860D4E908010843696808
:100FB00021F4741108436860C6F86090FFF7A8FA3E
:100FC000044606E025E000BFFFF7A2FA001B022856
:100FD00009D828688001F7D51BE000BFFFF798FA11
:100FE000001B022802D90320BDE8F88F2868800181
:100FF000F4D40EE00128F7D06868226A00F480314A
:10100000914204D1616A00F47010884201D001203D
:10101000EAE70020E8E7000000100240000042423A
:10102000800442421C00002000700040704770475E
:1010300070B590F83C20012A19D0012400F83C4FEB
:101040000222427050F83C3C5A689D6822F07006BB
:101050000A684968324325F0800529435A6050F8F0
:101060003C2C9160447000210170084670BD022044
:1010700070BD10B5040003D094F83D0010B107E036
:10108000012010BD002084F83C00204600F00CF840
:10109000022084F83D00211D206800F079FD012028
:1010A00084F83D00002010BD08B50068064988425C
:1010B00008D10648C16941F00201C161C06900F070
:1010C0000200009008BD0000000400400010024033
:1010D0000168CA6842F00102CA600068816801F0D4
:1010E0000701062903D0016841F0010101600020D9
:1010F000704770B5044690F83C00012817D00125D0
:1011000084F83C50022084F83D002068826822F078
:10111000770222F47F4282600868502830D00DDCCC
:1011200020284DD005DC98B310283BD148E00220A0
:1011300070BD302844D0402834D139E0602828D010
:10114000702806D0B0F5805F2CD0B0F5005F29D1B3
:101150000AE0CB68D1E90121206800F04FFD20684A
:10116000816841F0770109E0CB68D1E9012120686D
:1011700000F044FD2068816841F48041816011E005
:10118000CA684968206800F04BFD5021206807E0DC
:1011900016E0CA684968206800F053FD60212068A5
:1011A00000F036FD84F83D50002084F83C0070BD0E
:1011B000CA684968206800F033FD40212068EFE7E5
:1011C000226801461046EBE7704770B50446006898
:1011D00001694FF00005C943890715D4C168C943A7
:1011E000890711D4E91E01610120207720688069F8
:1011F0008007204602D0FFF7E7FF04E000F098F8F0
:10120000204600F0BCF8257720680169C9434907EA
:1012100017D4C168C943490713D46FF004010161B1
:10122000022020772068806910F4407F204602D099
:10123000FFF7CAFF04E000F07BF8204600F09FF8BB
:10124000257720680169C943090716D4C168C943D5
:10125000090712D46FF0080101610420207720688B
:10126000C0698007204602D0FFF7AEFF04E000F01F
:101270005FF8204600F083F8257720680169C943AC
:10128000C90617D4C168C943C90613D46FF0100149
:101290000161082020772068C06910F4407F204653
:1012A00002D0FFF791FF04E000F042F8204600F082
:1012B00066F8257720680169C943C90708D1C16864
:1012C000C943C90704D1891E0161204600F058F8BE
:1012D00020680169C943090609D4C168C9430906E0
:1012E00005D46FF0800101612046FFF79FFE206862
:1012F0000169C943490609D4C168C943490605D4EF
:101300006FF040010161204600F044F82068016957
:10131000C94389060BD4C168C943890607D46FF055
:10132000200101612046BDE87040FFF780BE70BD1E
:10133000704770B50D46040003D094F83D0010B11D
:1013400007E0012070BD002084F83C00204600F03A
:1013500015F8022084F83D00211D206800F018FCDB
:101360002068016821F008010160206801682943B4
:101370000160012084F83D00002070BD7047704777
:1013800000680349884201D1FFF7FCBA70470000AA
:10139000000800407047704770B502680446106846
:1013A000D168536910F00F0F50D003F0010501F41C
:1013B000907635435DD0C20705D0CA0503D5E26BF0
:1013C00042F00102E263420705D5DA0703D0E26B7F
:1013D00042F00202E263820705D5DA0703D0E26B2E
:1013E00042F00402E263020705D5DA0703D0E26B9C
:1013F00042F00802E263E26B002A33D0800604D593
:10140000880602D5204600F044FC20684069E16B64
:10141000C0F38010090700D428B3204600F02BFC4D
:101420002068416949061AD5416921F040014161AE
:10143000606BA0B11B494163606BFEF71BFF002886
:1014400010D0606B416BBDE870400847830610D533
:101450008B060ED52046BDE8704000F01ABC204631
:10146000FFF799FF70BD2046FFF795FF0020E0636E
:1014700070BD030606D50B0604D52046BDE87040B6
:1014800000F0AEBC4006F3D54806F1D5D168204641
:1014900021F04001D160202184F8391000F0C7F814
:1014A00070BD0000671C000870B5040004D094F8FB
:1014B0003900002510B106E0012070BD84F83850D5
:1014C000204600F023F8242084F839002068C16801
:1014D00021F40051C160204600F026FC206801691B
:1014E00021F4904101612068416921F02A014161A4
:1014F0002068C16841F40051C160E563202084F890
:10150000390084F83A00002070BD0000F0B585B0C5
:101510000024009401940294039403683E483C4FD5
:101520003C49022203260515BB4228D18B6943F4AE
:1015300080438B618B6903F4804304938B6943F090
:1015400004038B618969039601F00401049141153C
:10155000CDE9001269460646FEF7D8FECDE90054F3
:10156000694630460294FEF7D1FE0022052125206F
:10157000FFF78EFA2520FFF77DFA05B0F0BD274F63
:10158000BB4217D1CB6943F40033CB61CB6903F481
:10159000003304938B6943F004038B6189690392E0
:1015A00001F0040104910C21CDE900126946FEF717
:1015B000ADFEE2E71A488342DFD1C86940F48020DB
:1015C000C861C86900F480200490886940F0100068
:1015D00088618869CDE9005200F01000CDE9036010
:1015E000104D69462846FEF791FEE814CDE9000447
:1015F000694628460294FEF789FE0B49486820F0A8
:10160000300040F0E06040F010004860B5E70000B6
:101610000038014000100240000801400044004032
:101620000048004000100140000001407047704732
:10163000FEE701684A69D24352050FD46FF4806215
:101640004A61002140F8301F2022427381730269F1
:1016500042F00402026101730120704700207047CC
:10166000F8B50446C06A1E460D461746082807D03E
:10167000012805D010F5803F02D0206B122804D13C
:101680002068016841F480710160134600224FF028
:1016900001112046009600F04DF808BB2069B0F516
:1016A000804F0ED00620216800EAD51040F0F000EF
:1016B000086133463A460B49204600F06FF878B986
:1016C00002E005F0FE0000E0E8B22168086105498B
:1016D00033463A46891F204600F060F8002800D0C3
:1016E0000120F8BD0800010070B516460D460446FD
:1016F0000DE02046FFF79DFF08B1012070BD681C7A
:1017000005D0FEF705FF801BA84207D835B1206839
:101710004069C0434007ECD4002070BD002044F86D
:10172000300F20216173A073216941F020012161F4
:101730002073E2E72DE9F0471E4690460D46044629
:10174000C1F30747DDF8209008E0701C06D0FEF7D3
:10175000DFFEA0EB0900B0420FD876B12068012F60
:1017600018D0806925EA00000004000C14D0002184
:101770004145EAD00020BDE8F087002044F8300F52
:1017800020216173A073216941F020012161207340
:101790000120F0E74069E5E70121E9E72DE9F0479D
:1017A0009A4691460E46044600254FF02008C1F3A4
:1017B000074725E020684069C043400514D42068ED
:1017C000016841F40071016021686FF48060486134
:1017D000256384F83D8084F83E50206C40F004007E
:1017E000206484F83C501FE0B9F1FF3F08D0FEF7B9
:1017F0008FFEA0EB0A0149450CD8B9F1000F09D0C2
:101800002068012F13D0806926EA00000004000C34
:101810000BD0CFE744F8305F84F80D80A5732069C2
:1018200040F02000206125730120BDE8F087406969
:10183000EAE770B516460D4604460DE02046FFF770
:10184000F8FE08B1012070BD681C05D0FEF760FEEF
:10185000801BA84207D835B120684069C043000604
:10186000ECD4002070BD002044F8300F20216173BB
:10187000A073216941F0200121612073E2E700009B
:101880002DE9F04786B00024344800940194029476
:101890000394816941F010018161816901F01001B7
:1018A0000491816941F020018161816901F0200189
:1018B0000491816941F004018161816901F00401B1
:1018C0000491816941F0080181618069DFF89080AD
:1018D00000F008000490002220214046FEF712FE8E
:1018E000DFF880904FF44877002239464846FEF7EB
:1018F00009FE0122D1034046FEF704FEDFF868A08E
:10190000012220215046FEF7FDFD4FF40050012535
:101910008DE8310069464846FEF7F8FC48F22000A1
:101920000226CDE90005CDE9024669464046FEF7AC
:10193000EDFC00970396CDE9015469464846FEF751
:10194000E5FC2020CDE90005CDE902466946504678
:10195000FEF7DCFC06B0BDE8F08700000010024096
:101960000008014000100140000C014010B586B095
:1019700000241248009401940294039404940E49A4
:101980000594C0E900148460C46004618461FFF7B9
:1019900070FB4FF48050009069460848FFF7A9FBA0
:1019A00008210648FFF7C5FC049404A903480594E0
:1019B000FFF73EFB06B010BD00040040E000002031
:1019C000FEE77047204EDFF88490214F214D224CD6
:1019D0004FF400784FF4004A642000F0E5FC3078C2
:1019E00068B141464846FEF786FD687818B9514609
:1019F0002046FEF780FD642000F0D6FC09E00022BE
:101A000041464846FEF77EFD012251462046FEF73C
:101A100079FD387868B120212046FEF76CFD6878A2
:101A200018B951462046FEF766FD642000F0BCFC64
:101A3000D2E7002220212046FEF764FD0122514614
:101A40002046FEF75FFDC7E71A00002000100140A6
:101A50001B000020080000200008014010B55020A5
:101A600080F31188BFF34F8FBFF36F8F01F05EF9E2
:101A700018B104494FF080500860002080F31188AD
:101A800010BD000004ED00E030B58FB0282168469D
:101A9000FEF7ADFB14210AA8FEF7A9FB02250120E1
:101AA000049000951020059000244FF4C010CDE95B
:101AB000084007956846FFF729F90F200A90CDE9FD
:101AC0000B540D9401210AA80E94FFF713F80FB0E0
:101AD00030BD0000144910B54868144A10F00C03DA
:101AE000134803D0042B01D0082B09D002604968A9
:101AF000104AC1F30311515C0268CA40026010BD74
:101B00004A684B6802F470124FF0020413F4803FED
:101B100004EB924202D04B689B0301D5064B00E0D8
:101B2000024B5A43E2E700000010024000127A0024
:101B30001C000020F02E000800093D000D4801683F
:101B400041F00101016041680B4A114041600168A8
:101B50000A4A11400160016821F480210160416856
:101B600021F4FE0141604FF41F0181600449C0036C
:101B700008607047001002400000FFF8FFFFF6FE0B
:101B800008ED00E00148FFF720BB0000340400200E
:101B9000F0B50268164B174C174D4FF0804798422E
:101BA00005D0B84203D0A04201D0A84203D122F010
:101BB00070064A683243984205D0B84203D0A0422A
:101BC00001D0A84203D122F44074CA6822434C6970
:101BD00022F08002224302608A68C2620A6882623E
:101BE000984201D10969016301214161F0BD000002
:101BF000002C0140000400400008004010B584683B
:101C000042EA032224F47F440A432243826010BD47
:101C1000826822F070020A4342F007018160704737
:101C200010B5036A046A24F001040462846924F094
:101C3000F00444EA021423F00A020A4384610262B7
:101C400010BD10B5036A23F0100303628369046AB0
:101C500023F4704343EA023224F0A00343EA011163
:101C60008261016210BD10B5406A0021C185C18446
:101C7000FFF791FB10BD0168CA6822F49072CA6038
:101C800001684A6922F001024A61202180F83A1075
:101C9000704710B590F83A10222901D0022010BDEB
:101CA0008168B1F5805F11D00169002901681FD0FA
:101CB000496801F07F03816A4A1C82620B70C18D02
:101CC000491E0904090CC18518D02BE00269816AFC
:101CD000002A0268526805D0D2B20A80816A491C83
:101CE0008162ECE7C2F308020A80816A891CF7E787
:101CF0004A68816A4B1C83620A70E0E70168CA681F
:101D000022F02002CA600168CA6822F48072CA60A8
:101D100001684A6922F001024A61202180F83A10E4
:101D2000FFF784FC002010BD2DE9F0410446006857
:101D30000169E26821F44051114301612169A06801
:101D40000843616908432168CA6841F20C639A43F9
:101D50000243CA6020684169A26921F440711143BD
:101D600041611E49206864253226884202D1FEF76F
:101D700087FF01E0FEF774FF00EBC00101EB0011EB
:101D800060686FF018078000B1FBF0F2B2FBF5F26B
:101D9000B1FBF0F37A4303EB8202B1FBF0F306EB05
:101DA0000212B2FBF5F2B3FBF5F302F0F00202EB24
:101DB0000312B1FBF0F3B1FBF0F0B0FBF5F07843A8
:101DC00003EB800006EB0010B0FBF5F0216800F09B
:101DD0000F0010448860BDE8F08100000038014029
:101DE00090F83910212901D0022070478168B1F59F
:101DF000805F016A0BD04A1C026202680978516058
:101E0000C18C491E0904090CC1840ED017E0098851
:101E10000268C1F30801516001690029016A02D01A
:101E2000491C0162ECE7891CFBE70168CA6822F0E3
:101E30008002CA600068C16841F04001C1600020B2
:101E4000704700000F4808B500688DF800009DF845
:101E5000003000220C490D48312B0FD0322B0FD00F
:101E600001224C2B0AD0522B03D109E02021FEF78E
:101E700042FBBDE808400648FFF78EBA0A70F5E756
:101E80004A70F3E7043801401A00002000100140B6
:101E900020010020FEE70000184E194C0025307884
:101EA00010B91848007830B36078B8B94FF40051D1
:101EB0001548FEF71BFB08B125700FE02078401C89
:101EC000C0B22070072809D1012060700246C1030A
:101ED0000E48FEF717FB25700D48606060780128FA
:101EE00004D16068401E606000D165705FF00A0038
:101EF00000F05AFAD3E73220FAE700001A00002077
:101F0000080000201B0000200010014000080140D4
:101F100020BF02000907090E002804DB00F1E020C1
:101F200080F80014704700F00F0000F1E02080F806
:101F3000141D704702E008C8121F08C1002AFAD118
:101F400070477047002001E001C1121F002AFBD139
:101F50007047000010B5FFF7BDFD0E484FF47A71D1
:101F60000068B0FBF1F20C49521E4A800B4AB0FBEC
:101F7000F2F0401E88800A48016841F001010160CA
:101F8000001F0168C907FCD0016821F00101016050
:101F900010BD00001C0000200000002040420F0087
:101FA000140400400A490B4A49881160111D086059
:101FB00008482838016841F00101016005481838D7
:101FC0000168C907FCD0016821F001010160704778
:101FD00000000020280400402DE9F8438146C82075
:101FE000FFF7E0FF684E3020684C30704FF47A7590
:101FF0002B46052221784846FEF74AFB009501232F
:10200000324621784846FEF7EFFB4846FEF70EF9C8
:102010000A20FFF7C7FF0095012332462178484682
:10202000FEF7E2FB4846FEF701F90220FFF7BAFF90
:1020300000950123324621784846FEF7D5FB4846F5
:10204000FEF7F4F80220FFF7ADFF20203070009576
:102050000123324621784846FEF7C6FB4846FEF784
:10206000E5F80220FFF79EFF009501233246217814
:102070004846FEF7B9FB4846FEF7D8F84FF080080F
:1020800086F8008000950123324621784846FEF705
:10209000ABFB4846FEF7CAF80220FFF783FF002794
:1020A000377000950123324621784846FEF79CFBA5
:1020B0004846FEF7BBF886F80080009501233246BB
:1020C00021784846FEF790FB4846FEF7AFF802201D
:1020D000FFF768FF377000950123324621784846A4
:1020E000FEF782FB4846FEF7A1F8102030700095FD
:1020F0000123324621784846FEF776FB4846FEF734
:1021000095F80520FFF74EFF377000950123324602
:1021100021784846FEF768FB4846FEF787F86020BE
:10212000307000950123324621784846FEF75CFB6B
:102130004846FEF77BF80220FFF734FF3770009522
:102140000123324621784846FEF74EFB4846FEF70B
:102150006DF8C02030700095012332462178484642
:10216000FEF742FB4846FEF761F80220FFF71AFF30
:102170000820307000950123324621784846FEF74A
:1021800033FBBDE8F88300000000002018000020A9
:102190008EB0FEF7FFFBFFF777FCFFF771FB784887
:1021A0007649002401604FF4E131C0E901140C25A7
:1021B000C460C0E904458461C461FFF775F97048E3
:1021C000704940384FF416560160C0E90164C4609C
:1021D000C0E904458461C461FFF766F968486A494B
:1021E000D43801606949C0E901144FF48041C0E965
:1021F000034144618461C4610462FEF78FF9604861
:10220000634940300160C0E90164C460C0E904452D
:102210008461C461FFF748F9FFF7A8FB59480C3007
:10222000016841F020010160FFF794FE0320FFF7F1
:10223000B9FE5348D438FFF7CFFE51488021D43837
:1022400000F05EFC4E487321D43800F08DFC4C4801
:102250006B21D43800F088FC49486C21D43800F058
:1022600083FC47486121D43800F07EFC4448642157
:10227000D43800F079FC42482021D43800F074FCB6
:102280003F486C21D43800F06FFC3D486521D438BC
:1022900000F06AFC3A487621D43800F065FC3848F2
:1022A0006121D43800F060FC35487921D43800F041
:1022B0005BFC33486121D43800F056FC3048C02123
:1022C000D43800F01DFC2E487321D43800F04CFCAB
:1022D0002B486B21D43800F047FC29486C21D438B6
:1022E00000F042FC26486121D43800F03DFC24482F
:1022F0006421D43800F038FC21482021D43800F083
:1023000033FC1F487021D43800F02EFC1C48722189
:10231000D43800F029FC1A486121D43800F024FC9C
:1023200017487621D43800F01FFC15486121D438B5
:1023300000F01AFC12487921D43800F015FC10483E
:102340006121D43800F010FC1C2212496846FDF7C8
:1023500035FF0021684600F033F80F4C0D491C2270
:10236000A0601C3107A8FDF729FF002107A800F095
:1023700027F8E06000F01FF8FEE70000004400408E
:10238000600100200038014000540040A086010098
:1023900000480040B82E0008080000200146002038
:1023A000842900D0C81C704710B500B9012000F086
:1023B00015FB002010BD10B500F036FB002010BD4D
:1023C0007FB50D4604464169B0F9080081B1A169A5
:1023D00071B1FFF7E3FFD4E905128DE80700D4E9F6
:1023E00000102B46226900F076FC039004B070BD0B
:1023F000FFF7D4FF03A9CDE90001208A2B4682B262
:10240000D4E9001000F03AFC012801D00020EDE7EB
:102410000398EBE72DE9F041184C0F460546666935
:102420002068001D00F016FA38B9206890F82C10CA
:1024300001208840A1698143A161681C07D137B19F
:102440002168BDE8F0410E48091D00F047BA206838
:102450003544B5424560216805D2A068BDE8F04129
:10246000091D00F023BA6068091D00F01FFA206BF7
:10247000854200D22563BDE8F08100002C000020D9
:10248000500500202DE9F041054600F033FA2E4CAE
:102490002069401C206120682C4F10B1E06940B3D6
:1024A0002DE025602069012829D1002606EB860051
:1024B00007EB800000F0ECF9761C072EF6D32348DA
:1024C0008C3000F0E5F92148A03000F0E1F91F4818
:1024D000B43000F0DDF91D48C83000F0D9F91B48D0
:1024E000DC3000F0D5F919488C3060601430A06001
:1024F00005E02068E96AC06A884200D82560E06A81
:10250000401CE062E96A0120A26988401043A06192
:1025100001EB810007EB8000291D00F0DFF900F0DE
:1025200009FAE06900280CD02068E96AC06A88428C
:1025300007D207494FF080500860BFF34F8FBFF3B9
:102540006F8FBDE8F08100002C0000207404002093
:1025500004ED00E010B5044690F8510058B1012890
:102560000CD002280FD0502080F31188BFF34F8F7A
:10257000BFF36F8FFEE7206B00F0F0F92046BDE857
:10258000104000F0EBB910BD10484FF44061420715
:1025900006D0C01D0D4920F00700411AC1F5406169
:1025A0000B4A00230144C2E900030839103A21F024
:1025B000070111604B600B600B1AC0E900139360B8
:1025C0004FF000405360D060704700006405002069
:1025D00078000020144E154CA6F1C8074FF0805823
:1025E000DFF84C9012E000BF00F084F9F068C56895
:1025F000281D00F02FF92069401E2061E068401E70
:10260000E06000F097F92846FFF7A4FFE068002893
:10261000EAD138680128F9D9C9F80080BFF34F8F93
:10262000BFF36F8FF2E700003C0500202C00002074
:1026300004ED00E02DE9F0479A46DDE90984814682
:102640006FF00303206B03EB82021044089D20F01F
:102650000706700707D0502080F31188BFF34F8F13
:10266000BFF36F8FFEE723180A5C83F834200A5CFF
:1026700012B1401C1028F6D3002784F84370072DB0
:1026800000D30625E562C4E91157201D00F00BF9BF
:1026900004F1180000F007F92461C5F10700646235
:1026A000A061E76484F8507052464946304600F015
:1026B000BFF82060B8F1000F01D0C8F80040BDE8B5
:1026C000F087000030B5114900E011460A688242E7
:1026D000FBD34B685C18844203D1406818444860BF
:1026E000084643681C18944209D1084C103C2468E1
:1026F000A24209D052681A4442600A681268026015
:10270000814200D0086030BD0460F9E77800002005
:1027100006484168096829B14168C968C9684968BB
:10272000016370474FF0FF31FAE700002C000020F2
:1027300008484068401C4FF0500080F3118804D0D6
:10274000BFF34F8FBFF36F8FFEE7BFF34F8FBFF322
:102750006F8FFEE7800000202DE9F041054600273D
:1027600000F098F9314E306808B9FFF70DFFF068B6
:1027700005424BD1C5B3083568070ED005F00700F8
:10278000C0F108000544680707D0502080F3118885
:10279000BFF34F8FBFF36F8FFEE72DB37068854295
:1027A00034D82248103001460C6801E020460C461F
:1027B0006168A94202D221680029F7D131688C42B0
:1027C00024D007682168016060680837411B102920
:1027D0000FD96019420708D0502080F31188BFF349
:1027E0004F8FBFF36F8FFEE710E041606560FFF72A
:1027F00069FF61687068401A7060B268904200D2E8
:10280000B060F06801430020C4E9000100F0F2FA72
:10281000780707D0502080F31188BFF34F8FBFF3A4
:102820006F8FFEE73846BDE8F081000068000020A9
:1028300010B5031F4FF080741C601B1F21F00101B5
:102840001960191F024B0B60143940380A6010BD23
:1028500031270008D0E9013201699A60D0E90123EB
:102860005A604A68824201D182684A60002202614D
:102870000868401E0860086870470000034B03604A
:1028800003F154000860802010607047E0010020D0
:1028900000F108014FF0FF32C0E90112C16001618F
:1028A00000210160704700210161704730B50B685D
:1028B0005A1C02D000F1080202E0026904E022463C
:1028C000546825689D42FAD953684B6099608A60C4
:1028D000516008610168491C016030BD42684A606E
:1028E00093688B6093685960916008610168491C26
:1028F00001607047502080F31188BFF34F8FBFF302
:102900006F8F0A494868401C486001280CD108486C
:10291000006810F0FF0F07D0502080F31188BFF33C
:102920004F8FBFF36F8FFEE77047000080000020DD
:1029300004ED00E00849486828B1401E486001D114
:1029400080F311887047502080F31188BFF34F8FB8
:10295000BFF36F8FFEE700008000002070B50028F5
:1029600027D0144DA0F108046168E868014207D13E
:10297000502080F31188BFF34F8FBFF36F8FFEE7B6
:1029800022683AB1502080F31188BFF34F8FBFF314
:102990006F8FFEE78143616000F07CF860686968D2
:1029A000084468602046FFF78DFEBDE8704000F0E7
:1029B00021BA70BD680000204FF0E02000210161C5
:1029C000816105494FF47A720968B1FBF2F1491E41
:1029D00041610721016170471C00002010B5020011
:1029E00014D00F48806B38B1502080F31188BFF3AA
:1029F0004F8FBFF36F8FFEE700F04CF800211046B9
:102A0000FFF708FD00F0F6F9002807D105494FF05F
:102A100080500860BFF34F8FBFF36F8F10BD000071
:102A20002C00002004ED00E010B586B000240394D3
:102A300005AA04A903A80494FFF720FFDDE9030118
:102A40000094CDE9011000230EA11048059A00F072
:102A500042F90F490028486311D0502080F31188B3
:102A6000BFF34F8FBFF36F8F4FF0FF30086301202C
:102A7000C8614C6106B0BDE8104000F0ABB806B0CC
:102A800010BD000049444C4500000000D525000859
:102A90002C0000200248816B491C816370470000B4
:102AA0002C0000201448816B11B101214162704754
:102AB000002141628169B1FA81F1C1F11F0101EB8D
:102AC00081020E4951F822306BB101EB820101F114
:102AD00008034A6852684A609A4201D152684A60C3
:102AE000D16801607047502080F31188BFF34F8F89
:102AF000BFF36F8FFEE700002C000020740400205D
:102B00002DE9F843164C804601F0F0002070154E78
:102B10004FF47A750F4600950123224631784046DE
:102B2000FDF762FE4046FDF781FB380120700095FD
:102B30000123224631784046FDF756FE4046FDF718
:102B400075FB0120FFF72EFA082020700095012365
:102B5000224631784046FDF747FEBDE8F883000085
:102B600000000020180000202DE9F8438046174C93
:102B700001F0F000401C2070154E4FF47A750F469E
:102B800000950123224631784046FDF72DFE404650
:102B9000FDF74CFB012000EB07102070009501238E
:102BA000224631784046FDF71FFE4046FDF73EFBCA
:102BB0000120FFF7F7F90820207000950123224635
:102BC00031784046FDF710FEBDE8F8830000002094
:102BD000180000201CB5264908780190FF200870D5
:102BE00008788DF800009DF800009DF8002000F0A6
:102BF000F000904207D0502080F31188BFF34F8F30
:102C0000BFF36F8FFEE79DF800001A4B00F05000F5
:102C100018700720986005E09DF8002052008DF89C
:102C20000020401E9DF800201206F5D4986003286D
:102C300007D0502080F31188BFF34F8FBFF36F8F01
:102C4000FEE74FF440709860019808700A480168E8
:102C500041F470010160016841F070410160FFF7CB
:102C6000ABFE00205860FDF75DFA00201CBD00009F
:102C700000E400E08000002020ED00E02DE9FF5F8F
:102C80008346DDE90E87994616468A469000FFF78F
:102C900063FD05001CD05420FFF75EFD040014D036
:102CA0000020256384F85100CDE90240CDE900877A
:102CB0004B46324651465846FFF7BCFC2046FFF7CC
:102CC000E1FB012004B0BDE8F09F2846FFF746FE77
:102CD0004FF0FF30F6E7F0B585B0DDE90B640A9DF3
:102CE000A6B1DCB1542700972663022684F8516010
:102CF000002604AFCDE90246CDE90057FFF79AFC64
:102D00002046FFF7BFFB049805B0F0BD502080F3CC
:102D10001188BFF34F8FBFF36F8FFEE7502080F312
:102D20001188BFF34F8FBFF36F8FFEE72DE9F0419E
:102D30002E4C0027A06B40B1206A401C2062606AC4
:102D400000B101273846BDE8F0816669761C6661EE
:102D500013D16068006838B1502080F31188BFF348
:102D60004F8FBFF36F8FFEE76068A1686160A0605E
:102D7000A06A401CA062FFF7CBFC206BDFF87080DC
:102D8000864209D36068006880B16068C068C56821
:102D9000686886420DD220632068C06A00EB80011B
:102DA00058F821000128CAD90127C8E74FF0FF30A1
:102DB000F1E7281DFFF74EFDA86A18B105F11800CC
:102DC000FFF748FDE86A0121A26981401143A16132
:102DD00000EB800108EB8100291DFFF77FFDE86A09
:102DE0002168C96A8842CDD30127CBE72C00002097
:102DF000740400202DE9F0472C4D00242746A86BD1
:102E000038B1FFF777FDA86B401EA863A86B40B1EF
:102E100046E0502080F31188BFF34F8FBFF36F8FD0
:102E2000FEE72969224E0120D1B3A6F1B4098046FC
:102E30003068E8B1F068C46804F11800FFF70AFDD3
:102E4000201DFFF707FDE06AAA6908FA00F11143A7
:102E5000A96100EB800109EB8100211DFFF73EFD18
:102E6000E06A2968C96A8842E2D3C5F82480DFE7AE
:102E70000CB1FFF74DFC2C6A44B14646FFF756FFF4
:102E800000B16E62641EF9D100202862686A38B110
:102E90000849012738070860BFF34F8FBFF36F8FD2
:102EA000FFF748FD3846BDE8F08700002C00002001
:102EB0002805002004ED00E0142F0008C5190008C3
:102EC0000000000000000000800000000000000082
:102ED00000000000082F0008991E000800000000F4
:102EE0000000000080000000000000000000000062
:102EF00000000000000000000102030406070809AA
:102F00000000000001020304627574746F6E546166
:102F1000736B000064656661756C745461736B005B
:102F2000402F0008000000208C000000341F000823
:102F3000CC2F00088C000020DC140000441F000887
:102F40000000000000000000000000000000000081
:102F500000000000000000004E0000000024F4000B
:102F60000100000010000000000000000000000050
:102F70000000000000000000000000000000000051
:102F80000000000000000000000000000000000041
:102F90000000000000000000000000000000000031
:102FA0000000000000000000000000000000000021
:102FB0000000000000000000000000000000000011
:0C2FC00000000000AAAAAAAA000000005D
:04000005080000ED02
:00000001FF
