:020000040800F2
:1000000060150020990100087714000831130008DA
:1000100075140008290200084919000800000000B2
:1000200000000000000000000000000001010008C6
:100030002B0200080000000045010008111500080F
:10004000B3010008B3010008B3010008B3010008C0
:10005000B3010008B3010008B3010008B3010008B0
:10006000B3010008B3010008B3010008B3010008A0
:10007000B3010008B3010008B3010008B301000890
:10008000B3010008B3010008B3010008B301000880
:10009000B3010008B3010008B3010008B301000870
:1000A000B3010008B3010008B3010008B301000860
:1000B000B3010008B301000839160008B3010008B5
:1000C000B3010008B3010008B3010008B301000840
:1000D000B3010008F9180008B3010008B3010008D3
:1000E000B3010008B3010008B3010008DFF80CD029
:1000F00000F088F800480047551A000860150020F5
:10010000224B19680868B0E8F00F80F30988BFF344
:100110006F8F4FF0000080F311884EF00D0E704786
:100120000000000006480068006880F3088862B696
:1001300061B6BFF34F8FBFF36F8F00DF00BF00BF0B
:1001400008ED00E0EFF30980BFF36F8F0F4B1A68E3
:1001500020E9F00F106008B54FF0500080F31188CF
:10016000BFF34F8FBFF36F8F02F078F84FF00000AE
:1001700080F31188BDE8084019680868B0E8F00FFE
:1001800080F30988BFF36F8F704700BF28000020FD
:10019000EFF3058070470000064880470648004797
:1001A000FEE7FEE7FEE7FEE7FEE7FEE7FEE7FEE727
:1001B000FEE7FEE7F1150008ED00000840EA010344
:1001C0009B0703D009E008C9121F08C0042AFAD20D
:1001D00003E011F8013B00F8013B521EF9D27047D1
:1001E000D2B201E000F8012B491EFBD27047002279
:1001F000F6E710B513460A4604461946FFF7F0FF26
:10020000204610BD064C074D06E0E06840F00103B3
:1002100094E8070098471034AC42F6D3FFF76AFF22
:100220000426000824260008FEE7704710B590F861
:1002300021100024022903D00421816301243DE020
:1002400001680A6822F00E020A6001680A6822F05A
:1002500001020A601A4A0168914201D1012121E09C
:10026000174A1432914201D110211BE0144A28325E
:10027000914201D1891515E0114A3C32914201D1D8
:1002800089140FE00E4A5032914202D14FF480316E
:1002900008E00B4A6432914202D14FF4801101E030
:1002A0004FF08071064A083A5160012180F8211010
:1002B000002180F82010416B01B18847204610BD15
:1002C000080002402DE9F84FDFF8B891002409F149
:1002D000040A0AF1040B23460F270BF1040EC9E0B0
:1002E0000125A5402A40AA427DD1674ED1F804C01D
:1002F000ACEB0608B44532D014DCBCF1030F3AD0A5
:1003000009DCBCF1000F2AD0BCF1010F1CD0BCF1FC
:10031000020F31D11DE0BCF1110F17D0BCF1120F4B
:100320002AD119E0B8F5881F19D006DCB8F5803F4E
:1003300015D0B8F5801F1FD111E0B8F5001F0ED001
:10034000B8F5041F18D10AE0CB6815E0CB681B1D77
:1003500012E0CB6808330FE0CB680C330CE08B68FD
:100360002BB1012B4FF0080303D0456104E00423B7
:1003700002E0056100E00023FF2A01D8064601E003
:1003800000F104064FEA840501D9A5F12005D6F84D
:10039000008007FA05FC28EA0C0803FA05F548EA8C
:1003A0000508C6F800804D68ED0062D5374DAE698E
:1003B00046F00106AE61AD6924F0030605F00105C3
:1003C0000095334D06EB050CDCF80850A607360FF8
:1003D00007FA06F825EA0805DFF8B880404503D19A
:1003E0004FF0000817E044E0DFF8AC80404502D150
:1003F0004FF001080FE0DFF8A480404502D14FF034
:10040000020808E0DFF89880404502D14FF0030869
:1004100001E04FF0040808FA06F848EA0508CCF8AD
:1004200008804D68D9F80060ED034D4601D51643AC
:1004300000E096432E604D68DAF80060AD03554643
:1004400001D5164300E096432E604D68DBF800604E
:10045000ED025D4601D5164300E096432E604D68DF
:10046000DEF80060AD02754601D5164300E0964304
:100470002E60641C0D682A46E5407FF431AFBDE86C
:10048000F88F00000004014000001110001002402D
:100490000000014000080140000C01400010014034
:1004A000001401408068084000D001207047C268F5
:1004B0000A4201D041617047016170470AB1016190
:1004C00070470904FBE7000001488068704700009E
:1004D0001C00002070B504001BD094F83D000025DE
:1004E00020B984F83C50204600F0AEF8242084F86F
:1004F0003D002068016821F00101016000F040FA30
:100500004D4A6168914201D84C4900E04C4988420B
:1005100001D2012070BD4B492368B0FBF1F15E6848
:1005200026F03F060E435E606368934206D94FF49F
:10053000967359434FF47A73B1FBF3F12368491C66
:100540001E6A26F03F06314319626168914210D855
:100550004900401EB0FBF1F2521CC2F30B02042A08
:1005600001D2042022E0B0FBF1F0401CC0F30B00EC
:100570001CE0A368F3B301EBC10202EB0116421EBB
:10058000B2FBF6F2521C42F48042120549D093B3FA
:1005900001EBC10202EB0111401EB0FBF1F0401C67
:1005A000C0F30B0040F4804040F400402168CA6969
:1005B0004CF6FF739A431043C861D4E9070108431E
:1005C00021680A6822F0C00210430860D4E90301E0
:1005D00001432068826848F2FF339A4311438160E7
:1005E000D4E9050108432168CA6822F0FF021043DC
:1005F000C86001E00EE016E02068016841F00101EA
:1006000001602564202084F83D00256384F83E5075
:10061000002070BD01EB4106421EB2FBF6F2521CF7
:10062000B3E70120C2E701EB4101401EB0FBF1F04E
:10063000401CC0F30B00B7E7A086010080841E00B9
:1006400000093D0040420F0010B586B00021009126
:1006500001910291039100680F4988421AD10F4C11
:10066000A06940F00800A061A069694600F0080098
:100670000490C020009012200190032003900848AD
:10068000FFF720FEE06940F40010E061E06900F44B
:100690000010049006B010BD00540040001002404D
:1006A000000C014002488168027811448160704763
:1006B0001C000020074810B5016841F010010160DE
:1006C000032000F095F8002000F006F800F03EF856
:1006D000002010BD0020024000B5014687B0002276
:1006E0001E2000F065F81E2000F054F81348C16980
:1006F00041F00401C161C06905A900F00400069041
:10070000684600F01DF900F03BF90D490D4AB0FBB9
:10071000F1F10D48491E0260416040F2E7320021CC
:10072000C0E90321816000F034FB10B1012007B063
:1007300000BD054800F05AFBF9E700000010024038
:1007400040420F0000080040300400200F4808B568
:10075000816941F001018161816901F0010100912C
:10076000C16941F08051C161C069002200F0805030
:1007700000900F21901E00F01BF80548416821F001
:10078000E06141F00071416008BD000000100240CE
:1007900000000140002809DB00F01F020121914008
:1007A0004009800000F1E020C0F80011704700000F
:1007B000F0B40E4B1B680C46C3F30223C3F10705CC
:1007C000042D00D90425191D072901D2002300E0BA
:1007D000DB1E012606FA05F1491E214099409E4084
:1007E000761E16403143F0BC01F0EEB80CED00E08F
:1007F000064900F0070208684FF6FF03184040EA78
:100800000220034A10430860704700000CED00E02E
:100810000000FA052DE9F0470F46050061D0434E70
:10082000306800F00700B84209D2306820F00700B5
:1008300038433060306800F00700B84251D1286872
:100840003B4C810712D5400703D5606840F4E06057
:1008500060602878000703D5606840F460506060ED
:100860006068A96820F0F000084360602878C0073D
:1008700028D06868012810D02168022810D0890784
:1008800000292EDA616821F0030101436160FFF75E
:100890001BFE804641F288390DE021688903EFE7AD
:1008A0008901EDE7FFF710FEA0EB0801494502D9E9
:1008B0000320BDE8F0876068696800F00C00B0EBC9
:1008C000810FEFD1306800F00700B8420BD93068D3
:1008D00020F0070038433060306800F00700B8426D
:1008E00001D00120E5E72878400705D56068E96870
:1008F00020F4E060084360602878000706D560684F
:10090000296920F4605040EAC100606000F058F8A6
:100910006168084AC1F30311515CC8400649086088
:1009200006480068FFF7D8FE0020C2E7002002401A
:1009300000100240D42500081800002020000020EC
:100940000F2202600C4A536803F0030343605368AC
:1009500003F0F0038360536803F4E063C3605268FC
:100960004FF4E06303EAD20202610448006800F039
:10097000070008607047000000100240002002409D
:100980000448054900684968044AC1F30221515CE2
:10099000C84070471800002000100240E4250008FD
:1009A0000448054900684968044AC1F3C221515C02
:1009B000C84070471800002000100240E4250008DD
:1009C00012A185B00FC98DE80F0014A0144A006869
:1009D00004905168134801F00C03042B10D0082B2D
:1009E0000ED1C1F38343C9031DF803000AD5516832
:1009F00004AAC1F34041515C0A4A5043B0FBF1F0F4
:100A000005B0704708494843FAE7000002030405AF
:100A1000060708090A0B0C0D0E0F1010010200004A
:100A20000010024000127A0000093D002DE9F84F45
:100A3000040070D02078C04DC00749D06868C0F36A
:100A40008100012807D06868C0F38100022809D11D
:100A50006868C00306D52868800339D56068002817
:100A6000E7D035E06068B0F5803F0BD010B1B0F54D
:100A7000A02F11D0286820F480302860286820F446
:100A8000802002E0286840F480302860606890B1DF
:100A9000FFF71AFD06460AE0286840F48020286027
:100AA000F0E700BFFFF710FD801B642873D82868AB
:100AB0008003F7D50CE0FFF707FD064605E000BF11
:100AC000FFF702FD801B6428F0D828688003F7D464
:100AD00020789A4E80074FF001094FF0000839D571
:100AE000686810F00C0F07D06868C0F38100022816
:100AF00009D16868C00306D42868800714D5206926
:100B0000012808D110E02069B0B1C6F80090FFF7C5
:100B1000DBFC074605E00AE1FFF7D6FCC01B022814
:100B2000C4D828688007F7D52868616920F0F800E4
:100B300040EAC10028600DE0C6F80080FFF7C4FC61
:100B4000074604E0FFF7C0FCC01B022823D8286832
:100B50008007F7D4207800072CD57948A169D9B14E
:100B6000C0F80090FFF7B0FC074604E0FFF7ACFCCC
:100B7000C01B02280FD8686A8007F7D571484FF468
:100B8000FA510068B0FBF1F0009000BF0098411EE0
:100B90000091FAD20EE080E0C0F80080FFF794FCEC
:100BA000074604E0FFF790FCC01B022875D8686A6E
:100BB0008007F7D42078400760D5E8690027C00097
:100BC00008D4E86940F08050E861E869012700F046
:100BD000805000905C480168C90513D401688346C1
:100BE00041F480710160FFF76FFC824606E000BFB0
:100BF000FFF76AFCA0EB0A0064284ED8DBF800007F
:100C0000C005F5D5E06801280AD008B1052813D041
:100C1000286A20F001002862286A20F0040002E01F
:100C2000286A40F001002862E06841F2883B98B1F0
:100C3000FFF74AFC82460BE0286A40F00400286275
:100C4000EEE700BFFFF740FCA0EB0A0159455AD878
:100C5000286A8007F6D50CE0FFF736FC824605E0EF
:100C6000FFF732FCA0EB0A0159454CD8286A8007EF
:100C7000F6D41FB1E86920F08050E861E06988B3DC
:100C80006968C1F38101022944D00228C6F8608056
:100C900004D0FFF719FC044638E034E0FFF714FCF9
:100CA000074604E0FFF710FCC01B02282BD8286879
:100CB0008001F7D4206AB0F5803F05D16868A1684B
:100CC00020F4003008436860D4E9080108436968EB
:100CD00021F4741108436860C6F86090FFF7F4FBD4
:100CE000044606E025E000BFFFF7EEFB001B0228EC
:100CF00009D828688001F7D51BE000BFFFF7E4FBA7
:100D0000001B022802D90320BDE8F88F2868800163
:100D1000F4D40EE00128F7D06868226A00F480312C
:100D2000914204D1616A00F47010884201D0012020
:100D3000EAE70020E8E7000000100240000042421D
:100D40008004424218000020007000407047704745
:100D500070B590F83C20012A19D0012400F83C4FCE
:100D60000222427050F83C3C5A689D6822F070069E
:100D70000A684968324325F0800529435A6050F8D3
:100D80003C2C9160447000210170084670BD022027
:100D900070BD10B5040003D094F83D0010B107E019
:100DA000012010BD002084F83C00204600F00CF823
:100DB000022084F83D00211D206800F043FC012042
:100DC00084F83D00002010BD08B50068B0F1804FE8
:100DD00008D10548C16941F00101C161C06900F055
:100DE0000100009008BD0000001002400168CA68C0
:100DF00042F00102CA600068816801F0070106291B
:100E000003D0016841F0010101600020704770B516
:100E1000044690F83C00012817D0012584F83C5086
:100E2000022084F83D002068826822F0770222F4D4
:100E30007F4282600868502830D00DDC20284DD0D9
:100E400005DC98B310283BD148E0022070BD302863
:100E500044D0402834D139E0602828D0702806D00A
:100E6000B0F5805F2CD0B0F5005F29D10AE0CB68E7
:100E7000D1E90121206800F01BFC2068816841F065
:100E8000770109E0CB68D1E90121206800F010FC6E
:100E90002068816841F48041816011E0CA68496836
:100EA000206800F017FC5021206807E016E0CA68AF
:100EB0004968206800F01FFC6021206800F002FCF7
:100EC00084F83D50002084F83C0070BDCA68496831
:100ED000206800F0FFFB40212068EFE72268014610
:100EE0001046EBE7704770B50446006801694FF0A3
:100EF0000005C943890715D4C168C943890711D4BE
:100F0000E91E016101202077206880698007204662
:100F100002D0FFF7E7FF04E000F098F8204600F069
:100F2000BCF8257720680169C943490717D4C1680F
:100F3000C943490713D46FF00401016102202077EF
:100F40002068806910F4407F204602D0FFF7CAFF76
:100F500004E000F07BF8204600F09FF82577206839
:100F60000169C943090716D4C168C943090712D4E6
:100F70006FF008010161042020772068C0698007B4
:100F8000204602D0FFF7AEFF04E000F05FF82046F5
:100F900000F083F8257720680169C943C90617D492
:100FA000C168C943C90613D46FF01001016108205C
:100FB00020772068C06910F4407F204602D0FFF7F8
:100FC00091FF04E000F042F8204600F066F8257733
:100FD00020680169C943C90708D1C168C943C90765
:100FE00004D1891E0161204600F058F8206801698B
:100FF000C943090609D4C168C943090605D46FF07D
:10100000800101612046FFF7A1FE20680169C94304
:10101000490609D4C168C943490605D46FF04001A7
:101020000161204600F044F820680169C94389063F
:101030000BD4C168C943890607D46FF02001016150
:101040002046BDE87040FFF782BE70BD704770B5A6
:101050000D46040003D094F83D0010B107E00120D4
:1010600070BD002084F83C00204600F015F80220F6
:1010700084F83D00211D206800F0E4FA2068016832
:1010800021F0080101602068016829430160012006
:1010900084F83D00002070BD704770470068034928
:1010A000884201D1FFF7FEBA7047000000080040F7
:1010B0007047704770B5026804461068D16853697C
:1010C00010F00F0F50D003F0010501F49076354376
:1010D0005DD0C20705D0CA0503D5E26B42F001021C
:1010E000E263420705D5DA0703D0E26B42F0020261
:1010F000E263820705D5DA0703D0E26B42F004020F
:10110000E263020705D5DA0703D0E26B42F008027A
:10111000E263E26B002A33D0800604D5880602D54C
:10112000204600F010FB20684069E16BC0F380109E
:10113000090700D428B3204600F0F7FA2068416977
:1011400049061AD5416921F040014161606BA0B1A7
:101150001B494163606BFFF769F8002810D0606B92
:10116000416BBDE870400847830610D58B060ED54D
:101170002046BDE8704000F0E6BA2046FFF799FF30
:1011800070BD2046FFF795FF0020E06370BD0306A9
:1011900006D50B0604D52046BDE8704000F07ABBAA
:1011A0004006F3D54806F1D5D168204621F040012C
:1011B000D160202184F8391000F0B9F870BD00002A
:1011C0001B17000870B5040004D094F839000025FE
:1011D00010B106E0012070BD84F83850204600F0C0
:1011E00023F8242084F839002068C16821F40051D4
:1011F000C160204600F0F2FA2068016921F49041B4
:1012000001612068416921F02A0141612068C168BB
:1012100041F40051C160E563202084F8390084F86E
:101220003A00002070BD0000F0B585B000240094A5
:1012300001940294039403683848364F36490222D9
:1012400003260515BB4228D18B6943F480438B618B
:101250008B6903F4804304938B6943F004038B612F
:101260008969039601F0040104914115CDE900124A
:1012700069460646FFF726F8CDE900546946304630
:101280000294FFF71FF8002205212520FFF790FAAE
:101290002520FFF77FFA05B0F0BD214FBB4215D1E5
:1012A000CB6943F40033CB61CB6903F4003304937F
:1012B0008B6943F004038B618969039201F0040197
:1012C00004910C21CDE90012694620E015488342C3
:1012D000E1D1C86940F48020C861C86900F4802069
:1012E0000490886940F0080088618869CDE900525F
:1012F00000F00800CDE903600B4D69462846FEF773
:10130000E1FFE814CDE90004694628460294FEF79F
:10131000D9FFC0E70038014000100240000801403A
:101320000044004000480040000C014070477047F6
:10133000FEE700002DE9F04786B000243448009411
:10134000019402940394816941F0100181618169E3
:1013500001F010010491816941F0200181618169EE
:1013600001F020010491816941F0040181618169EA
:1013700001F004010491816941F0080181618069F3
:10138000DFF8908000F00800049000222021404601
:10139000FFF794F8DFF880904FF448770022394641
:1013A0004846FFF78BF80122D1034046FFF786F845
:1013B000DFF868A0012220215046FFF77FF84FF4A4
:1013C000005001258DE8310069464846FEF77AFF56
:1013D00048F220000226CDE90005CDE90246694623
:1013E0004046FEF76FFF00970396CDE9015469462A
:1013F0004846FEF767FF2020CDE90005CDE902460B
:1014000069465046FEF75EFF06B0BDE8F087000073
:10141000001002400008014000100140000C014093
:1014200010B586B0002412480094019402940394ED
:1014300004944FF080410594C0E900148460C460B6
:1014400004618461FFF7A5FC4FF480500090694669
:101450000748FFF7DCFC08210548FFF7F8FD049476
:1014600004A903480594FFF773FC06B010BD000003
:10147000DC000020FEE77047204EDFF88490214F0B
:10148000214D224C4FF400784FF4004A642000F0C4
:1014900067FB307868B141464846FFF708F8A878FE
:1014A00018B951462046FFF702F8642000F058FBB7
:1014B00009E0002241464846FFF700F80122514664
:1014C0002046FEF7FBFF387868B120212046FEF762
:1014D000EEFFA87818B951462046FEF7E8FF6420D1
:1014E00000F03EFBD2E7002220212046FEF7E6FF77
:1014F000012251462046FEF7E1FFC7E71400002015
:1015000000100140150000200000002000080140EC
:1015100010B5502080F31188BFF34F8FBFF36F8F4A
:1015200000F076FF18B104494FF0805008600020A9
:1015300080F3118810BD000004ED00E030B58FB0DD
:1015400028216846FEF753FE14210AA8FEF74FFE35
:1015500002250120049000951020059000244FF4EE
:10156000C010CDE9084007956846FFF75FFA0F20E5
:101570000A90CDE90B540D9401210AA80E94FFF7AF
:1015800049F90FB030BD0000144910B54868144A3D
:1015900010F00C03134803D0042B01D0082B09D002
:1015A00002604968104AC1F30311515C0268CA40E5
:1015B000026010BD4A684B6802F470124FF00204DA
:1015C00013F4803F04EB924202D04B689B0301D599
:1015D000064B00E0024B5A43E2E7000000100240D5
:1015E00000127A0018000020D425000800093D00F0
:1015F0000D48016841F00101016041680B4A11404A
:10160000416001680A4A11400160016821F48021AB
:101610000160416821F4FE0141604FF41F018160C7
:101620000449C00308607047001002400000FFF842
:10163000FFFFF6FE08ED00E00148FFF754BC000094
:1016400030040020F0B50268164B174C174D4FF0D0
:101650008047984205D0B84203D0A04201D0A842AA
:1016600003D122F070064A683243984205D0B8424E
:1016700003D0A04201D0A84203D122F44074CA682A
:1016800022434C6922F08002224302608A68C262CF
:101690000A688262984201D10969016301214161AE
:1016A000F0BD0000002C0140000400400008004094
:1016B00010B5846842EA032224F47F440A4322439B
:1016C000826010BD826822F070020A4342F0070176
:1016D0008160704710B5036A046A24F00104046253
:1016E000846924F0F00444EA021423F00A020A4355
:1016F0008461026210BD10B5036A23F01003036217
:101700008369046A23F4704343EA023224F0A0039D
:1017100043EA01118261016210BD10B5406A0021E7
:10172000C185C184FFF7C5FC10BD0168CA6822F4F9
:101730009072CA6001684A6922F001024A61202160
:1017400080F83A10704710B590F83A10222901D06D
:10175000022010BD8168B1F5805F11D001690029B8
:1017600001681FD0496801F07F03816A4A1C8262C8
:101770000B70C18D491E0904090CC18518D02BE0DE
:101780000269816A002A0268526805D0D2B20A80D2
:10179000816A491C8162ECE7C2F308020A80816A0F
:1017A000891CF7E74A68816A4B1C83620A70E0E78C
:1017B0000168CA6822F02002CA600168CA6822F47F
:1017C0008072CA6001684A6922F001024A612021E0
:1017D00080F83A10FFF7AAFD002010BD2DE9F04176
:1017E000044600680169E26821F440511143016137
:1017F0002169A0680843616908432168CA6841F209
:101800000C639A430243CA6020684169A26921F4CB
:101810004071114341611E49206864253226884287
:1018200002D1FFF7BDF801E0FFF7AAF800EBC00115
:1018300001EB001160686FF018078000B1FBF0F257
:10184000B2FBF5F2B1FBF0F37A4303EB8202B1FB9A
:10185000F0F306EB0212B2FBF5F2B3FBF5F302F084
:10186000F00202EB0312B1FBF0F3B1FBF0F0B0FBBE
:10187000F5F0784303EB800006EB0010B0FBF5F0C9
:10188000216800F00F0010448860BDE8F08100007E
:101890000038014090F83910212901D0022070470A
:1018A0008168B1F5805F016A0BD04A1C0262026850
:1018B00009785160C18C491E0904090CC1840ED0FD
:1018C00017E009880268C1F3080151600169002925
:1018D000016A02D0491C0162ECE7891CFBE7016840
:1018E000CA6822F08002CA600068C16841F0400105
:1018F000C1600020704700000F4808B500688DF8EF
:1019000000009DF8003000220C490D48312B0FD00B
:10191000322B0FD001224C2B0AD0522B03D109E0DD
:101920002021FEF7C4FDBDE808400648FFF7C2BB12
:101930000A70F5E74A70F3E704380140140000200C
:10194000001001401C010020FEE70000184E194C59
:101950000025307810B91848007830B3A078B8B9AD
:101960004FF400511548FEF79DFD08B165700FE07A
:101970006078401CC0B26070072809D10120A070B7
:101980000246C1030E48FEF799FD65700D48A06040
:10199000A078012804D1A068401EA06000D1A570E5
:1019A0005FF00A0000F0DCF8D3E73220FAE700002D
:1019B000140000200000002015000020001001404D
:1019C0000008014020BF02000907090E002804DBBF
:1019D00000F1E02080F80014704700F00F0000F1E3
:1019E000E02080F8141D704702E008C8121F08C1EB
:1019F000002AFAD170477047002001E001C1121F90
:101A0000002AFBD170474FF08041C862086840F05F
:101A1000010008600869C007FCD0086920F00100D7
:101A20000861704710B5FFF7AFFD09484FF47A71B0
:101A30000068B0FBF1F14FF08040491E81624169BE
:101A400041F001014161016921F00101016110BD15
:101A5000180000208EB0FEF72DFEFFF76FFDFFF798
:101A600069FC35483349002401604FF4E131C0E995
:101A700001140C25C460C0E904458461C461FFF70A
:101A8000A1FB2D482D4940384FF416560160C0E99E
:101A90000164C460C0E904458461C461FFF792FB3E
:101AA00025482749D43801602649C0E901144FF47C
:101AB0008041C0E9034144618461C4610462FEF76E
:101AC00009FD1D48204940300160C0E90164C4603F
:101AD000C0E904458461C461FFF774FBFFF7A0FC13
:101AE00016480C30016841F020010160FFF79AFFB1
:101AF0004FF47A721046FFF786FF1046FFF783FF18
:101B00001C2212496846FEF759FB0021684600F086
:101B100033F80F4C0D491C22E0601C3107A8FEF77A
:101B20004DFB002107A800F027F8206100F01FF806
:101B3000FEE70000004400405C0100200038014046
:101B400000540040A0860100004800409C25000889
:101B50000000002001460020842900D0C81C7047E6
:101B600010B500B9012000F015FB002010BD10B524
:101B700000F036FB002010BD7FB50D4604464169DC
:101B8000B0F9080081B1A16971B1FFF7E3FFD4E9B1
:101B900005128DE80700D4E900102B46226900F0F9
:101BA0000CFC039004B070BDFFF7D4FF03A9CDE98E
:101BB0000001208A2B4682B2D4E9001000F0D0FB4D
:101BC000012801D00020EDE70398EBE72DE9F04173
:101BD000184C0F46054666692068001D00F016FA8D
:101BE00038B9206890F82C1001208840A169814301
:101BF000A161681C07D137B12168BDE8F0410E48EA
:101C0000091D00F047BA20683544B5424560216897
:101C100005D2A068BDE8F041091D00F023BA606854
:101C2000091D00F01FFA206B854200D22563BDE834
:101C3000F0810000280000204C0500202DE9F04133
:101C4000054600F033FA2E4C2069401C20612068C4
:101C50002C4F10B1E06940B32DE0256020690128C8
:101C600029D1002606EB860007EB800000F0ECF996
:101C7000761C072EF6D323488C3000F0E5F9214876
:101C8000A03000F0E1F91F48B43000F0DDF91D4844
:101C9000C83000F0D9F91B48DC3000F0D5F91948FC
:101CA0008C3060601430A06005E02068E96AC06A8A
:101CB000884200D82560E06A401CE062E96A0120A1
:101CC000A26988401043A06101EB810007EB80000E
:101CD000291D00F0DFF900F009FAE06900280CD0B6
:101CE0002068E96AC06A884207D207494FF08050ED
:101CF0000860BFF34F8FBFF36F8FBDE8F081000026
:101D0000280000207004002004ED00E010B5044617
:101D100090F8510058B101280CD002280FD0502063
:101D200080F31188BFF34F8FBFF36F8FFEE7206BF7
:101D300000F0F0F92046BDE8104000F0EBB910BD0E
:101D400010484FF44061420706D0C01D0D4920F0F5
:101D50000700411AC1F540610B4A00230144C2E962
:101D600000030839103A21F0070111604B600B6045
:101D70000B1AC0E9001393604FF000405360D0602D
:101D8000704700006005002074000020144E154CC0
:101D9000A6F1C8074FF08058DFF84C9012E000BF62
:101DA00000F084F9F068C568281D00F02FF920695B
:101DB000401E2061E068401EE06000F097F9284670
:101DC000FFF7A4FFE0680028EAD138680128F9D9B4
:101DD000C9F80080BFF34F8FBFF36F8FF2E70000A9
:101DE000380500202800002004ED00E02DE9F04730
:101DF0009A46DDE9098481466FF00303206B03EB0B
:101E000082021044089D20F00706700707D050207A
:101E100080F31188BFF34F8FBFF36F8FFEE7231856
:101E20000A5C83F834200A5C12B1401C1028F6D3F7
:101E3000002784F84370072D00D30625E562C4E926
:101E40001157201D00F00BF904F1180000F007F9FC
:101E50002461C5F107006462A061E76484F85070F2
:101E600052464946304600F0BFF82060B8F1000FF6
:101E700001D0C8F80040BDE8F087000030B5114936
:101E800000E011460A688242FBD34B685C1884422A
:101E900003D1406818444860084643681C189442BF
:101EA00009D1084C103C2468A24209D052681A4457
:101EB00042600A6812680260814200D0086030BD4A
:101EC0000460F9E77400002006484168096829B1F8
:101ED0004168C968C9684968016370474FF0FF31BC
:101EE000FAE700002800002008484068401C4FF036
:101EF000500080F3118804D0BFF34F8FBFF36F8F72
:101F0000FEE7BFF34F8FBFF36F8FFEE77C0000202B
:101F10002DE9F0410546002700F098F9314E306870
:101F200008B9FFF70DFFF06805424BD1C5B308357E
:101F300068070ED005F00700C0F1080005446807E7
:101F400007D0502080F31188BFF34F8FBFF36F8FFE
:101F5000FEE72DB37068854234D822481030014620
:101F60000C6801E020460C466168A94202D2216853
:101F70000029F7D131688C4224D0076821680160BC
:101F800060680837411B10290FD96019420708D033
:101F9000502080F31188BFF34F8FBFF36F8FFEE7A0
:101FA00010E041606560FFF769FF61687068401A82
:101FB0007060B268904200D2B060F06801430020C7
:101FC000C4E9000100F088FA780707D0502080F3B8
:101FD0001188BFF34F8FBFF36F8FFEE73846BDE820
:101FE000F08100006400002010B5031F4FF08074E2
:101FF0001C601B1F21F001011960191F024B0B60AF
:10200000143940380A6010BDE91E0008D0E90132D9
:1020100001699A60D0E901235A604A68824201D17D
:1020200082684A60002202610868401E08600868F1
:1020300070470000034B036003F1540008608020E8
:1020400010607047DC01002000F108014FF0FF3202
:10205000C0E90112C16001610021016070470021E7
:102060000161704730B50B685A1C02D000F10802BC
:1020700002E0026904E02246546825689D42FAD9CC
:1020800053684B6099608A60516008610168491C1F
:10209000016030BD42684A6093688B609368596004
:1020A000916008610168491C01607047502080F30D
:1020B0001188BFF34F8FBFF36F8F0A494868401CE8
:1020C000486001280CD10848006810F0FF0F07D0C5
:1020D000502080F31188BFF34F8FBFF36F8FFEE75F
:1020E000704700007C00002004ED00E008494868CB
:1020F00028B1401E486001D180F3118870475020FC
:1021000080F31188BFF34F8FBFF36F8FFEE700009E
:102110007C00002070B5002827D0144DA0F10804E1
:102120006168E868014207D1502080F31188BFF34D
:102130004F8FBFF36F8FFEE722683AB1502080F3D4
:102140001188BFF34F8FBFF36F8FFEE7814361604C
:1021500000F07CF860686968084468602046FFF712
:102160008DFEBDE8704000F0B7B970BD640000207E
:102170004FF0E02000210161816105494FF47A723E
:102180000968B1FBF2F1491E416107210161704705
:102190001800002010B5020014D00F48806B38B131
:1021A000502080F31188BFF34F8FBFF36F8FFEE78E
:1021B00000F04CF800211046FFF708FD00F08CF904
:1021C000002807D105494FF080500860BFF34F8FBA
:1021D000BFF36F8F10BD00002800002004ED00E069
:1021E00010B586B00024039405AA04A903A804949A
:1021F000FFF720FFDDE903010094CDE90110002382
:102200000EA11048059A00F0D8F80F49002848633D
:1022100011D0502080F31188BFF34F8FBFF36F8F21
:102220004FF0FF3008630120C8614C6106B0BDE883
:10223000104000F041B806B010BD000049444C45C4
:10224000000000008D1D0008280000200248816B5E
:10225000491C816370470000280000201448816BEE
:1022600011B1012141627047002141628169B1FAD7
:1022700081F1C1F11F0101EB81020E4951F82230B9
:102280006BB101EB820101F108034A6852684A60B0
:102290009A4201D152684A60D1680160704750206B
:1022A00080F31188BFF34F8FBFF36F8FFEE70000FD
:1022B00028000020700400201CB5264908780190F1
:1022C000FF20087008788DF800009DF800009DF848
:1022D000002000F0F000904207D0502080F31188D9
:1022E000BFF34F8FBFF36F8FFEE79DF800001A4BCF
:1022F00000F0500018700720986005E09DF800205D
:1023000052008DF80020401E9DF800201206F5D4E2
:102310009860032807D0502080F31188BFF34F8FB7
:10232000BFF36F8FFEE74FF440709860019808701C
:102330000A48016841F470010160016841F0704190
:102340000160FFF715FF00205860FDF7EBFE00204D
:102350001CBD000000E400E07C00002020ED00E057
:102360002DE9FF5F8346DDE90E87994616468A46CA
:102370009000FFF7CDFD05001CD05420FFF7C8FDED
:10238000040014D00020256384F85100CDE90240F8
:10239000CDE900874B46324651465846FFF726FDA9
:1023A0002046FFF74BFC012004B0BDE8F09F284613
:1023B000FFF7B0FE4FF0FF30F6E7F0B585B0DDE98E
:1023C0000B640A9DA6B1DCB1542700972663022650
:1023D00084F85160002604AFCDE90246CDE90057EC
:1023E000FFF704FD2046FFF729FC049805B0F0BD77
:1023F000502080F31188BFF34F8FBFF36F8FFEE73C
:10240000502080F31188BFF34F8FBFF36F8FFEE72B
:102410002DE9F0412E4C0027A06B40B1206A401CF2
:102420002062606A00B101273846BDE8F081666924
:10243000761C666113D16068006838B1502080F363
:102440001188BFF34F8FBFF36F8FFEE76068A168FD
:102450006160A060A06A401CA062FFF735FD206BA0
:10246000DFF87080864209D36068006880B16068D8
:10247000C068C568686886420DD220632068C06A5B
:1024800000EB800158F821000128CAD90127C8E7CC
:102490004FF0FF30F1E7281DFFF7B8FDA86A18B12B
:1024A00005F11800FFF7B2FDE86A0121A269814039
:1024B0001143A16100EB800108EB8100291DFFF7AA
:1024C000E9FDE86A2168C96A8842CDD30127CBE7D4
:1024D00028000020700400202DE9F0472C4D002436
:1024E0002746A86B38B1FFF7E1FDA86B401EA86333
:1024F000A86B40B146E0502080F31188BFF34F8FA6
:10250000BFF36F8FFEE72969224E0120D1B3A6F1F8
:10251000B40980463068E8B1F068C46804F1180076
:10252000FFF774FD201DFFF771FDE06AAA6908FA44
:1025300000F11143A96100EB800109EB8100211D2D
:10254000FFF7A8FDE06A2968C96A8842E2D3C5F8A6
:102550002480DFE70CB1FFF7B7FC2C6A44B1464694
:10256000FFF756FF00B16E62641EF9D100202862A9
:10257000686A38B10849012738070860BFF34F8FF0
:10258000BFF36F8FFFF7B2FD3846BDE8F08700005C
:10259000280000202405002004ED00E0F8250008B4
:1025A0007914000800000000000000008000000016
:1025B0000000000000000000EC2500084D19000894
:1025C000000000000000000080000000000000008B
:1025D00000000000000000000000000001020304F1
:1025E0000607080900000000010203046275747404
:1025F0006F6E5461736B000064656661756C745432
:1026000061736B0024260008000000208800000091
:10261000E8190008AC26000888000020D814000043
:10262000F8190008000000004E0000000000000043
:102630000000000000000000000000000024F40082
:102640000100000010000000000000000000000079
:10265000000000000000000000000000000000007A
:10266000000000000000000000000000000000006A
:10267000000000000000000000000000000000005A
:10268000000000000000000000000000000000004A
:10269000000000000000000000000000000000003A
:0C26A00000000000AAAAAAAA0000000086
:04000005080000ED02
:00000001FF
