:020000040800F2
:1000000080140020990100080B120008DD10000880
:100010000912000829020008F91600080000000073
:1000200000000000000000000000000001010008C6
:100030002B0200080000000045010008991200088A
:10004000B3010008B3010008B3010008B3010008C0
:10005000B3010008B3010008B3010008B3010008B0
:10006000B3010008B3010008B3010008B3010008A0
:10007000B3010008B3010008B3010008B301000890
:10008000B3010008B3010008B3010008B301000880
:10009000B3010008B3010008B3010008B301000870
:1000A000B3010008B3010008B3010008B301000860
:1000B000B3010008B3010008C1130008B301000830
:1000C000B3010008B3010008B3010008B301000840
:1000D000B301000881160008B3010008B30100084D
:1000E000B3010008B3010008B3010008DFF80CD029
:1000F00000F088F80048004711190008801400201B
:10010000224B19680868B0E8F00F80F30988BFF344
:100110006F8F4FF0000080F311884EF00D0E704786
:100120000000000006480068006880F3088862B696
:1001300061B6BFF34F8FBFF36F8F00DF00BF00BF0B
:1001400008ED00E0EFF30980BFF36F8F0F4B1A68E3
:1001500020E9F00F106008B54FF0500080F31188CF
:10016000BFF34F8FBFF36F8F01F088FF4FF0000098
:1001700080F31188BDE8084019680868B0E8F00FFE
:1001800080F30988BFF36F8F704700BF180000200D
:10019000EFF3058070470000064880470648004797
:1001A000FEE7FEE7FEE7FEE7FEE7FEE7FEE7FEE727
:1001B000FEE7FEE779130008ED00000840EA0103BE
:1001C0009B0703D009E008C9121F08C0042AFAD20D
:1001D00003E011F8013B00F8013B521EF9D27047D1
:1001E000D2B201E000F8012B491EFBD27047002279
:1001F000F6E710B513460A4604461946FFF7F0FF26
:10020000204610BD064C074D06E0E06840F00103B3
:1002100094E8070098471034AC42F6D3FFF76AFF22
:10022000FC2300081C240008FEE7704710B590F876
:1002300021100024022903D00421816301243DE020
:1002400001680A6822F00E020A6001680A6822F05A
:1002500001020A601A4A0168914201D1012121E09C
:10026000174A1432914201D110211BE0144A28325E
:10027000914201D1891515E0114A3C32914201D1D8
:1002800089140FE00E4A5032914202D14FF480316E
:1002900008E00B4A6432914202D14FF4801101E030
:1002A0004FF08071064A083A5160012180F8211010
:1002B000002180F82010416B01B18847204610BD15
:1002C000080002402DE9F84FDFF8B891002409F149
:1002D000040A0AF1040B23460F270BF1040EC9E0B0
:1002E0000125A5402A40AA427DD1674ED1F804C01D
:1002F000ACEB0608B44532D014DCBCF1030F3AD0A5
:1003000009DCBCF1000F2AD0BCF1010F1CD0BCF1FC
:10031000020F31D11DE0BCF1110F17D0BCF1120F4B
:100320002AD119E0B8F5881F19D006DCB8F5803F4E
:1003300015D0B8F5801F1FD111E0B8F5001F0ED001
:10034000B8F5041F18D10AE0CB6815E0CB681B1D77
:1003500012E0CB6808330FE0CB680C330CE08B68FD
:100360002BB1012B4FF0080303D0456104E00423B7
:1003700002E0056100E00023FF2A01D8064601E003
:1003800000F104064FEA840501D9A5F12005D6F84D
:10039000008007FA05FC28EA0C0803FA05F548EA8C
:1003A0000508C6F800804D68ED0062D5374DAE698E
:1003B00046F00106AE61AD6924F0030605F00105C3
:1003C0000095334D06EB050CDCF80850A607360FF8
:1003D00007FA06F825EA0805DFF8B880404503D19A
:1003E0004FF0000817E044E0DFF8AC80404502D150
:1003F0004FF001080FE0DFF8A480404502D14FF034
:10040000020808E0DFF89880404502D14FF0030869
:1004100001E04FF0040808FA06F848EA0508CCF8AD
:1004200008804D68D9F80060ED034D4601D51643AC
:1004300000E096432E604D68DAF80060AD03554643
:1004400001D5164300E096432E604D68DBF800604E
:10045000ED025D4601D5164300E096432E604D68DF
:10046000DEF80060AD02754601D5164300E0964304
:100470002E60641C0D682A46E5407FF431AFBDE86C
:10048000F88F00000004014000001110001002402D
:100490000000014000080140000C01400010014034
:1004A000001401408068084000D001207047C268F5
:1004B0000A4201D041617047016170470AB1016190
:1004C00070470904FBE7000001488068704700009E
:1004D000080000200248816802781144816070475A
:1004E00008000020074810B5016841F010010160C4
:1004F000032000F095F8002000F006F800F03EF828
:10050000002010BD0020024000B5014687B0002247
:100510001E2000F065F81E2000F054F81348C16951
:1005200041F00401C161C06905A900F00400069012
:10053000684600F01DF900F03BF90D490D4AB0FB8B
:10054000F1F10D48491E0260416040F2E73200219E
:10055000C0E90321816000F034FB10B1012007B035
:1005600000BD054800F05AFBF9E70000001002400A
:1005700040420F00000800404C0300200F4808B51F
:10058000816941F001018161816901F001010091FE
:10059000C16941F08051C161C069002200F0805002
:1005A00000900F21901E00F01BF80548416821F0D3
:1005B000E06141F00071416008BD000000100240A0
:1005C00000000140002809DB00F01F0201219140DA
:1005D0004009800000F1E020C0F8001170470000E1
:1005E000F0B40E4B1B680C46C3F30223C3F107059E
:1005F000042D00D90425191D072901D2002300E08C
:10060000DB1E012606FA05F1491E214099409E4055
:10061000761E16403143F0BC01F030B90CED00E01D
:10062000064900F0070208684FF6FF03184040EA49
:100630000220034A10430860704700000CED00E000
:100640000000FA052DE9F0470F46050061D0434E42
:10065000306800F00700B84209D2306820F0070087
:1006600038433060306800F00700B84251D1286844
:100670003B4C810712D5400703D5606840F4E06029
:1006800060602878000703D5606840F460506060BF
:100690006068A96820F0F000084360602878C0070F
:1006A00028D06868012810D02168022810D0890756
:1006B00000292EDA616821F0030101436160FFF730
:1006C00003FF804641F288390DE021688903EFE796
:1006D0008901EDE7FFF7F8FEA0EB0801494502D9D3
:1006E0000320BDE8F0876068696800F00C00B0EB9B
:1006F000810FEFD1306800F00700B8420BD93068A5
:1007000020F0070038433060306800F00700B8423E
:1007100001D00120E5E72878400705D56068E96841
:1007200020F4E060084360602878000706D5606820
:10073000296920F4605040EAC100606000F058F878
:100740006168084AC1F30311515CC840064908605A
:1007500006480068FFF7D8FE0020C2E700200240EC
:1007600000100240D8230008140000200C000020D4
:100770000F2202600C4A536803F00303436053687E
:1007800003F0F0038360536803F4E063C3605268CE
:100790004FF4E06303EAD20202610448006800F00B
:1007A000070008607047000000100240002002406F
:1007B0000448054900684968044AC1F30221515CB4
:1007C000C84070471400002000100240E8230008D1
:1007D0000448054900684968044AC1F3C221515CD4
:1007E000C84070471400002000100240E8230008B1
:1007F00012A185B00FC98DE80F0014A0144A00683B
:1008000004905168134801F00C03042B10D0082BFE
:100810000ED1C1F38343C9031DF803000AD5516803
:1008200004AAC1F34041515C0A4A5043B0FBF1F0C5
:1008300005B0704708494843FAE700000203040581
:10084000060708090A0B0C0D0E0F1010010200001C
:100850000010024000127A0000093D002DE9F84F17
:10086000040070D02078C04DC00749D06868C0F33C
:100870008100012807D06868C0F38100022809D1EF
:100880006868C00306D52868800339D560680028E9
:10089000E7D035E06068B0F5803F0BD010B1B0F51F
:1008A000A02F11D0286820F480302860286820F418
:1008B000802002E0286840F480302860606890B1B1
:1008C000FFF702FE06460AE0286840F48020286010
:1008D000F0E700BFFFF7F8FD801B642873D8286895
:1008E0008003F7D50CE0FFF7EFFD064605E000BFFB
:1008F000FFF7EAFD801B6428F0D828688003F7D44E
:1009000020789A4E80074FF001094FF0000839D542
:10091000686810F00C0F07D06868C0F381000228E7
:1009200009D16868C00306D42868800714D52069F7
:10093000012808D110E02069B0B1C6F80090FFF797
:10094000C3FD074605E00AE1FFF7BEFDC01B022814
:10095000C4D828688007F7D52868616920F0F800B6
:1009600040EAC10028600DE0C6F80080FFF7ACFD4A
:10097000074604E0FFF7A8FDC01B022823D828681B
:100980008007F7D4207800072CD57948A169D9B120
:10099000C0F80090FFF798FD074604E0FFF794FDCC
:1009A000C01B02280FD8686A8007F7D571484FF43A
:1009B000FA510068B0FBF1F0009000BF0098411EB2
:1009C0000091FAD20EE080E0C0F80080FFF77CFDD5
:1009D000074604E0FFF778FDC01B022875D8686A57
:1009E0008007F7D42078400760D5E8690027C00069
:1009F00008D4E86940F08050E861E869012700F018
:100A0000805000905C480168C90513D40168834692
:100A100041F480710160FFF757FD824606E000BF98
:100A2000FFF752FDA0EB0A0064284ED8DBF8000067
:100A3000C005F5D5E06801280AD008B1052813D013
:100A4000286A20F001002862286A20F0040002E0F1
:100A5000286A40F001002862E06841F2883B98B1C2
:100A6000FFF732FD82460BE0286A40F0040028625E
:100A7000EEE700BFFFF728FDA0EB0A0159455AD861
:100A8000286A8007F6D50CE0FFF71EFD824605E0D8
:100A9000FFF71AFDA0EB0A0159454CD8286A8007D8
:100AA000F6D41FB1E86920F08050E861E06988B3AE
:100AB0006968C1F38101022944D00228C6F8608028
:100AC00004D0FFF701FD044638E034E0FFF7FCFCFA
:100AD000074604E0FFF7F8FCC01B02282BD8286863
:100AE0008001F7D4206AB0F5803F05D16868A1681D
:100AF00020F4003008436860D4E9080108436968BD
:100B000021F4741108436860C6F86090FFF7DCFCBC
:100B1000044606E025E000BFFFF7D6FC001B0228D4
:100B200009D828688001F7D51BE000BFFFF7CCFC8F
:100B3000001B022802D90320BDE8F88F2868800135
:100B4000F4D40EE00128F7D06868226A00F48031FE
:100B5000914204D1616A00F47010884201D00120F2
:100B6000EAE70020E8E700000010024000004242EF
:100B7000800442421400002000700040704770471B
:100B800070B590F83C20012A19D0012400F83C4FA0
:100B90000222427050F83C3C5A689D6822F0700670
:100BA0000A684968324325F0800529435A6050F8A5
:100BB0003C2C9160447000210170084670BD0220F9
:100BC00070BD10B5040003D094F83D0010B107E0EB
:100BD000012010BD002084F83C00204600F00CF8F5
:100BE000022084F83D00211D206800F0EFFB012069
:100BF00084F83D00002010BD08B50068B0F1804FBA
:100C000008D10548C16941F00101C161C06900F026
:100C10000100009008BD0000001002400168CA6891
:100C200042F00102CA600068816801F007010629EC
:100C300003D0016841F0010101600020704770B5E8
:100C4000044690F83C00012817D0012584F83C5058
:100C5000022084F83D002068826822F0770222F4A6
:100C60007F4282600868502830D00DDC20284DD0AB
:100C700005DC98B310283BD148E0022070BD302835
:100C800044D0402834D139E0602828D0702806D0DC
:100C9000B0F5805F2CD0B0F5005F29D10AE0CB68B9
:100CA000D1E90121206800F0C7FB2068816841F08C
:100CB000770109E0CB68D1E90121206800F0BCFB95
:100CC0002068816841F48041816011E0CA68496808
:100CD000206800F0C3FB5021206807E016E0CA68D6
:100CE0004968206800F0CBFB6021206800F0AEFB73
:100CF00084F83D50002084F83C0070BDCA68496803
:100D0000206800F0ABFB40212068EFE72268014635
:100D10001046EBE7704770B50446006801694FF074
:100D20000005C943890715D4C168C943890711D48F
:100D3000E91E016101202077206880698007204634
:100D400002D0FFF7E7FF04E000F098F8204600F03B
:100D5000BCF8257720680169C943490717D4C168E1
:100D6000C943490713D46FF00401016102202077C1
:100D70002068806910F4407F204602D0FFF7CAFF48
:100D800004E000F07BF8204600F09FF8257720680B
:100D90000169C943090716D4C168C943090712D4B8
:100DA0006FF008010161042020772068C069800786
:100DB000204602D0FFF7AEFF04E000F05FF82046C7
:100DC00000F083F8257720680169C943C90617D464
:100DD000C168C943C90613D46FF01001016108202E
:100DE00020772068C06910F4407F204602D0FFF7CA
:100DF00091FF04E000F042F8204600F066F8257705
:100E000020680169C943C90708D1C168C943C90736
:100E100004D1891E0161204600F058F8206801695C
:100E2000C943090609D4C168C943090605D46FF04E
:100E3000800101612046FFF7A1FE20680169C943D6
:100E4000490609D4C168C943490605D46FF0400179
:100E50000161204600F044F820680169C943890611
:100E60000BD4C168C943890607D46FF02001016122
:100E70002046BDE87040FFF782BE70BD704770B578
:100E80000D46040003D094F83D0010B107E00120A6
:100E900070BD002084F83C00204600F015F80220C8
:100EA00084F83D00211D206800F090FA2068016858
:100EB00021F00801016020680168294301600120D8
:100EC00084F83D00002070BD7047704700680349FA
:100ED000884201D1FFF7FEBA7047000000080040C9
:100EE0007047704770B5026804461068D16853694E
:100EF00010F00F0F50D003F0010501F49076354348
:100F00005DD0C20705D0CA0503D5E26B42F00102ED
:100F1000E263420705D5DA0703D0E26B42F0020232
:100F2000E263820705D5DA0703D0E26B42F00402E0
:100F3000E263020705D5DA0703D0E26B42F008024C
:100F4000E263E26B002A33D0800604D5880602D51E
:100F5000204600F0BCFA20684069E16BC0F38010C5
:100F6000090700D428B3204600F0A3FA206841699D
:100F700049061AD5416921F040014161606BA0B179
:100F80001B494163606BFFF751F9002810D0606B7B
:100F9000416BBDE870400847830610D58B060ED51F
:100FA0002046BDE8704000F092BA2046FFF799FF56
:100FB00070BD2046FFF795FF0020E06370BD03067B
:100FC00006D50B0604D52046BDE8704000F026BBD0
:100FD0004006F3D54806F1D5D168204621F04001FE
:100FE000D160202184F8391000F077F870BD00003E
:100FF000A314000870B5040004D094F8390000254B
:1010000010B106E0012070BD84F83850204600F091
:1010100023F8242084F839002068C16821F40051A5
:10102000C160204600F09EFA2068016921F49041D9
:1010300001612068416921F02A0141612068C1688D
:1010400041F40051C160E563202084F8390084F840
:101050003A00002070BD000030B585B00024009437
:101060000194029403940068184988422CD11848CE
:10107000816941F480418161816901F48041049179
:10108000816941F0040181618069124D00F0040022
:1010900004904FF400700090022001900320039010
:1010A00069462846FFF70EF92815CDE90004694680
:1010B00028460294FFF706F9002205212520FFF7B4
:1010C0008FFA2520FFF77EFA05B030BD00380140C9
:1010D000001002400008014070477047FEE7000022
:1010E0002DE9F04F85B000242E480094019402941D
:1010F0000394816941F010018161816901F010015F
:101100000491816941F008018161816901F0080160
:101110000491816941F0040181618069DFF8889060
:1011200000F004004FF40055049000222946484680
:10113000FFF7C4F9DFF874A047F2F0070022394640
:101140005046FFF7BBF9DFF868B04FF48078012212
:1011500041465846FFF7B2F90126CDE9005602256F
:1011600069464846CDE90245FFF7ACF84FF44060C8
:101170008DE8310069465046FFF7A4F8CDE90076C6
:1011800069465046CDE90245FFF79CF8CDE9008657
:1011900069465846CDE90245FFF794F805B0BDE829
:1011A000F08F00000010024000100140000C0140D0
:1011B0000008014010B586B0002412480094019444
:1011C0000294039404944FF080410594C0E9001404
:1011D0008460C46004618461FFF7F3FC4FF48050C5
:1011E000009069460748FFF72AFD08210548FFF7E8
:1011F00046FE049404A903480594FFF7C1FC06B019
:1012000010BD000078000020FEE77047214DDFF898
:101210007C801F4E4FF400574FF47A794FF4806A68
:101220002C1F39464046FFF742F9484600F0A8FB1C
:1012300051463046FFF736F940B120680006FCD52C
:101240004C20286020680006FCD507E020680006D6
:10125000FCD53120286020680006FCD54FF40061E1
:101260003046FFF71FF940B120680006FCD5522038
:10127000286020680006FCD5D3E720680006FCD56E
:101280003220286020680006FCD5CAE70010014023
:10129000000C01400438014010B5502080F3118843
:1012A000BFF34F8FBFF36F8F00F0C2FF18B1044937
:1012B0004FF080500860002080F3118810BD0000BE
:1012C00004ED00E030B58FB028216846FEF78FFFAF
:1012D00014210AA8FEF78BFF022501200490009537
:1012E0001020059000244FF4C010CDE90840079568
:1012F0006846FFF7B3FA0F200A90CDE90B540D941E
:1013000001210AA80E94FFF79DF90FB030BD00002F
:10131000144910B54868144A10F00C03134803D060
:10132000042B01D0082B09D002604968104AC1F390
:101330000311515C0268CA40026010BD4A684B68E4
:1013400002F470124FF0020413F4803F04EB924257
:1013500002D04B689B0301D5064B00E0024B5A4379
:10136000E2E700000010024000127A0014000020A2
:10137000D823000800093D000D48016841F0010133
:10138000016041680B4A1140416001680A4A1140FE
:101390000160016821F480210160416821F4FE01AF
:1013A00041604FF41F0181600449C0030860704729
:1013B000001002400000FFF8FFFFF6FE08ED00E01D
:1013C0000148FFF7A8BC00004C030020F0B50268FC
:1013D000164B174C174D4FF08047984205D0B84236
:1013E00003D0A04201D0A84203D122F070064A687F
:1013F0003243984205D0B84203D0A04201D0A8425F
:1014000003D122F44074CA6822434C6922F080025E
:10141000224302608A68C2620A688262984201D1ED
:101420000969016301214161F0BD0000002C014008
:10143000000400400008004010B5846842EA03221E
:1014400024F47F440A432243826010BD826822F064
:1014500070020A4342F007018160704710B5036AC9
:10146000046A24F001040462846924F0F00444EA6C
:10147000021423F00A020A438461026210BD10B50F
:10148000036A23F0100303628369046A23F4704340
:1014900043EA023224F0A00343EA011182610162AF
:1014A00010BD10B5406A0021C185C184FFF719FD48
:1014B00010BD0168CA6822F49072CA6001684A6966
:1014C00022F001024A61202180F83A10704710B5DD
:1014D00090F83A10222901D0022010BD8168B1F5A0
:1014E000805F11D00169002901681FD0496801F0AF
:1014F0007F03816A4A1C82620B70C18D491E0904F8
:10150000090CC18518D02BE00269816A002A0268A3
:10151000526805D0D2B20A80816A491C8162ECE728
:10152000C2F308020A80816A891CF7E74A68816A67
:101530004B1C83620A70E0E70168CA6822F020024F
:10154000CA600168CA6822F48072CA6001684A6988
:1015500022F001024A61202180F83A10FFF7BCFD19
:10156000002010BD2DE9F041044600680169E268E1
:1015700021F44051114301612169A0680843616968
:1015800008432168CA6841F20C639A430243CA6067
:1015900020684169A26921F44071114341611E49EB
:1015A000206864253226884202D1FFF711F901E054
:1015B000FFF7FEF800EBC00101EB001160686FF06F
:1015C00018078000B1FBF0F2B2FBF5F2B1FBF0F3CB
:1015D0007A4303EB8202B1FBF0F306EB0212B2FB9B
:1015E000F5F2B3FBF5F302F0F00202EB0312B1FBEC
:1015F000F0F3B1FBF0F0B0FBF5F0784303EB8000C3
:1016000006EB0010B0FBF5F0216800F00F0010446D
:101610008860BDE8F08100000038014090F8391082
:10162000212901D0022070478168B1F5805F016AED
:101630000BD04A1C0262026809785160C18C491EB5
:101640000904090CC1840ED017E009880268C1F3AF
:101650000801516001690029016A02D0491C016238
:10166000ECE7891CFBE70168CA6822F08002CA60C7
:101670000068C16841F04001C1600020704700006F
:101680001A4810B50068C0B200F0B0F8184C2078C5
:10169000401CC0B220700F2823D1002000F08EF82B
:1016A000002000F04FF8002000F040F8002000F08B
:1016B00031F8002000F022F800F05CF8002000F083
:1016C00041F8002000F032F8012000F023F800205B
:1016D00000F014F800F04EF80A2000F0EEF80020B8
:1016E0002070BDE810400348FFF7FCBB0438014000
:1016F00004000020B8000020FEE70000044B08B101
:10170000012200E0002210211846FEF7D7BE00009B
:10171000000C0140044B08B1012200E0002220210E
:101720001846FEF7CBBE0000000C0140044B08B188
:10173000012200E0002240211846FEF7BFBE000053
:10174000000C0140044B08B1012200E0002280217E
:101750001846FEF7B3BE0000000C0140044B4FF4E6
:10176000804108B1012200E000221846FEF7A6BE23
:10177000000C014010B5FFF7CBFD0E480E49006884
:10178000B0FBF1F000EB400084B2002001E0401C0F
:1017900080B2A042FBD30120FFF7E0FF002001E070
:1017A000401C80B2A042FBD3BDE810400020FFF7F0
:1017B000D5BF00001400002040420F00044B4FF43E
:1017C000805108B1012200E000221846FEF776BEE3
:1017D000000C0140044B4FF4005108B1012200E01D
:1017E00000221846FEF76ABE000C014010B5044600
:1017F0000020FFF7EFFF0120FFF7E0FF200601D5F3
:10180000012000E00020FFF79DFF600601D50120C8
:1018100000E00020FFF78AFFA00601D5012000E0CC
:101820000020FFF777FFE00601D5012000E000204F
:10183000FFF764FFFFF79EFF2007040E200601D587
:10184000012000E00020FFF77DFF600601D50120A8
:1018500000E00020FFF76AFFA00601D5012000E0AC
:101860000020FFF757FFE00601D5012000E000202F
:10187000FFF744FFBDE81040FFF77CBF0907090EE2
:10188000002804DB00F1E02080F80014704700F02D
:101890000F0000F1E02080F8141D704702E008C836
:1018A000121F08C1002AFAD170477047002001E0DA
:1018B00001C1121F002AFBD170474FF08041C8625E
:1018C000086840F0010008600869C007FCD008699A
:1018D00020F001000861704710B5FFF719FD0B48B3
:1018E0004FF47A710068B0FBF1F14FF08040491E6F
:1018F0008162416941F0010141610169C907FCD080
:10190000016921F00101016110BD000014000020F7
:1019100088B0FEF7E7FDFFF7D5FCFFF7E1FBFFF727
:1019200049FC11480F490C2201604FF416514160E7
:1019300000218160C160C0E904128161C161FFF7CB
:1019400059FBFFF7C9FF1C2208496846FEF736FC21
:101950000021684600F020F80549086000F017F8FB
:10196000FEE7000000380140B8000020BC2300085A
:101970000000002001460020842900D0C81C7047C8
:1019800010B500B9012000F015FB002010BD10B506
:1019900000F036FB002010BD7FB50D4604464169BE
:1019A000B0F9080081B1A16971B1FFF7E3FFD4E993
:1019B00005128DE80700D4E900102B46226900F0DB
:1019C0000CFC039004B070BDFFF7D4FF03A9CDE970
:1019D0000001208A2B4682B2D4E9001000F0D0FB2F
:1019E000012801D00020EDE70398EBE72DE9F04155
:1019F000184C0F46054666692068001D00F016FA6F
:101A000038B9206890F82C1001208840A1698143E2
:101A1000A161681C07D137B12168BDE8F0410E48CB
:101A2000091D00F047BA20683544B5424560216879
:101A300005D2A068BDE8F041091D00F023BA606836
:101A4000091D00F01FFA206B854200D22563BDE816
:101A5000F081000018000020680400202DE9F0410A
:101A6000054600F033FA2E4C2069401C20612068A6
:101A70002C4F10B1E06940B32DE0256020690128AA
:101A800029D1002606EB860007EB800000F0ECF978
:101A9000761C072EF6D323488C3000F0E5F9214858
:101AA000A03000F0E1F91F48B43000F0DDF91D4826
:101AB000C83000F0D9F91B48DC3000F0D5F91948DE
:101AC0008C3060601430A06005E02068E96AC06A6C
:101AD000884200D82560E06A401CE062E96A012083
:101AE000A26988401043A06101EB810007EB8000F0
:101AF000291D00F0DFF900F009FAE06900280CD098
:101B00002068E96AC06A884207D207494FF08050CE
:101B10000860BFF34F8FBFF36F8FBDE8F081000007
:101B2000180000208C03002004ED00E010B50446EE
:101B300090F8510058B101280CD002280FD0502045
:101B400080F31188BFF34F8FBFF36F8FFEE7206BD9
:101B500000F0F0F92046BDE8104000F0EBB910BDF0
:101B600010484FF44061420706D0C01D0D4920F0D7
:101B70000700411AC1F540610B4A00230144C2E944
:101B800000030839103A21F0070111604B600B6027
:101B90000B1AC0E9001393604FF000405360D0600F
:101BA000704700007C04002064000020144E154C97
:101BB000A6F1C8074FF08058DFF84C9012E000BF44
:101BC00000F084F9F068C568281D00F02FF920693D
:101BD000401E2061E068401EE06000F097F9284652
:101BE000FFF7A4FFE0680028EAD138680128F9D996
:101BF000C9F80080BFF34F8FBFF36F8FF2E700008B
:101C0000540400201800002004ED00E02DE9F04706
:101C10009A46DDE9098481466FF00303206B03EBEC
:101C200082021044089D20F00706700707D050205C
:101C300080F31188BFF34F8FBFF36F8FFEE7231838
:101C40000A5C83F834200A5C12B1401C1028F6D3D9
:101C5000002784F84370072D00D30625E562C4E908
:101C60001157201D00F00BF904F1180000F007F9DE
:101C70002461C5F107006462A061E76484F85070D4
:101C800052464946304600F0BFF82060B8F1000FD8
:101C900001D0C8F80040BDE8F087000030B5114918
:101CA00000E011460A688242FBD34B685C1884420C
:101CB00003D1406818444860084643681C189442A1
:101CC00009D1084C103C2468A24209D052681A4439
:101CD00042600A6812680260814200D0086030BD2C
:101CE0000460F9E76400002006484168096829B1EA
:101CF0004168C968C9684968016370474FF0FF319E
:101D0000FAE700001800002008484068401C4FF027
:101D1000500080F3118804D0BFF34F8FBFF36F8F53
:101D2000FEE7BFF34F8FBFF36F8FFEE76C0000201D
:101D30002DE9F0410546002700F098F9314E306852
:101D400008B9FFF70DFFF06805424BD1C5B3083560
:101D500068070ED005F00700C0F1080005446807C9
:101D600007D0502080F31188BFF34F8FBFF36F8FE0
:101D7000FEE72DB37068854234D822481030014602
:101D80000C6801E020460C466168A94202D2216835
:101D90000029F7D131688C4224D00768216801609E
:101DA00060680837411B10290FD96019420708D015
:101DB000502080F31188BFF34F8FBFF36F8FFEE782
:101DC00010E041606560FFF769FF61687068401A64
:101DD0007060B268904200D2B060F06801430020A9
:101DE000C4E9000100F088FA780707D0502080F39A
:101DF0001188BFF34F8FBFF36F8FFEE73846BDE802
:101E0000F08100005400002010B5031F4FF08074D3
:101E10001C601B1F21F001011960191F024B0B6090
:101E2000143940380A6010BD091D0008D0E901329C
:101E300001699A60D0E901235A604A68824201D15F
:101E400082684A60002202610868401E08600868D3
:101E500070470000034B036003F1540008608020CA
:101E600010607047F800002000F108014FF0FF32C9
:101E7000C0E90112C16001610021016070470021C9
:101E80000161704730B50B685A1C02D000F108029E
:101E900002E0026904E02246546825689D42FAD9AE
:101EA00053684B6099608A60516008610168491C01
:101EB000016030BD42684A6093688B6093685960E6
:101EC000916008610168491C01607047502080F3EF
:101ED0001188BFF34F8FBFF36F8F0A494868401CCA
:101EE000486001280CD10848006810F0FF0F07D0A7
:101EF000502080F31188BFF34F8FBFF36F8FFEE741
:101F0000704700006C00002004ED00E008494868BC
:101F100028B1401E486001D180F3118870475020DD
:101F200080F31188BFF34F8FBFF36F8FFEE7000080
:101F30006C00002070B5002827D0144DA0F10804D3
:101F40006168E868014207D1502080F31188BFF32F
:101F50004F8FBFF36F8FFEE722683AB1502080F3B6
:101F60001188BFF34F8FBFF36F8FFEE7814361602E
:101F700000F07CF860686968084468602046FFF7F4
:101F80008DFEBDE8704000F0B7B970BD5400002070
:101F90004FF0E02000210161816105494FF47A7220
:101FA0000968B1FBF2F1491E4161072101617047E7
:101FB0001400002010B5020014D00F48806B38B117
:101FC000502080F31188BFF34F8FBFF36F8FFEE770
:101FD00000F04CF800211046FFF708FD00F08CF9E6
:101FE000002807D105494FF080500860BFF34F8F9C
:101FF000BFF36F8F10BD00001800002004ED00E05B
:1020000010B586B00024039405AA04A903A804947B
:10201000FFF720FFDDE903010094CDE90110002363
:102020000EA11048059A00F0D8F80F49002848631F
:1020300011D0502080F31188BFF34F8FBFF36F8F03
:102040004FF0FF3008630120C8614C6106B0BDE865
:10205000104000F041B806B010BD000049444C45A6
:1020600000000000AD1B0008180000200248816B32
:10207000491C816370470000180000201448816BE0
:1020800011B1012141627047002141628169B1FAB9
:1020900081F1C1F11F0101EB81020E4951F822309B
:1020A0006BB101EB820101F108034A6852684A6092
:1020B0009A4201D152684A60D1680160704750204D
:1020C00080F31188BFF34F8FBFF36F8FFEE70000DF
:1020D000180000208C0300201CB5264908780190C8
:1020E000FF20087008788DF800009DF800009DF82A
:1020F000002000F0F000904207D0502080F31188BB
:10210000BFF34F8FBFF36F8FFEE79DF800001A4BB0
:1021100000F0500018700720986005E09DF800203E
:1021200052008DF80020401E9DF800201206F5D4C4
:102130009860032807D0502080F31188BFF34F8F99
:10214000BFF36F8FFEE74FF44070986001980870FE
:102150000A48016841F470010160016841F0704172
:102160000160FFF715FF00205860FDF7DBFF00203E
:102170001CBD000000E400E06C00002020ED00E049
:102180002DE9FF5F8346DDE90E87994616468A46AC
:102190009000FFF7CDFD05001CD05420FFF7C8FDCF
:1021A000040014D00020256384F85100CDE90240DA
:1021B000CDE900874B46324651465846FFF726FD8B
:1021C0002046FFF74BFC012004B0BDE8F09F2846F5
:1021D000FFF7B0FE4FF0FF30F6E7F0B585B0DDE970
:1021E0000B640A9DA6B1DCB1542700972663022632
:1021F00084F85160002604AFCDE90246CDE90057CE
:10220000FFF704FD2046FFF729FC049805B0F0BD58
:10221000502080F31188BFF34F8FBFF36F8FFEE71D
:10222000502080F31188BFF34F8FBFF36F8FFEE70D
:102230002DE9F0412E4C0027A06B40B1206A401CD4
:102240002062606A00B101273846BDE8F081666906
:10225000761C666113D16068006838B1502080F345
:102260001188BFF34F8FBFF36F8FFEE76068A168DF
:102270006160A060A06A401CA062FFF735FD206B82
:10228000DFF87080864209D36068006880B16068BA
:10229000C068C568686886420DD220632068C06A3D
:1022A00000EB800158F821000128CAD90127C8E7AE
:1022B0004FF0FF30F1E7281DFFF7B8FDA86A18B10D
:1022C00005F11800FFF7B2FDE86A0121A26981401B
:1022D0001143A16100EB800108EB8100291DFFF78C
:1022E000E9FDE86A2168C96A8842CDD30127CBE7B6
:1022F000180000208C0300202DE9F0472C4D00240D
:102300002746A86B38B1FFF7E1FDA86B401EA86314
:10231000A86B40B146E0502080F31188BFF34F8F87
:10232000BFF36F8FFEE72969224E0120D1B3A6F1DA
:10233000B40980463068E8B1F068C46804F1180058
:10234000FFF774FD201DFFF771FDE06AAA6908FA26
:1023500000F11143A96100EB800109EB8100211D0F
:10236000FFF7A8FDE06A2968C96A8842E2D3C5F888
:102370002480DFE70CB1FFF7B7FC2C6A44B1464676
:10238000FFF756FF00B16E62641EF9D1002028628B
:10239000686A38B10849012738070860BFF34F8FD2
:1023A000BFF36F8FFFF7B2FD3846BDE8F08700003E
:1023B000180000204004002004ED00E0F023000895
:1023C0000D12000800000000000000008000000066
:1023D00000000000000000000000000000000000FD
:1023E00001020304060708090000000001020304BB
:1023F00064656661756C745461736B001C2400081D
:1024000000000020780000009C18000894240008B8
:102410007800002008140000AC180008000000003C
:10242000000000000100000010000000000000009B
:102430000024F40000000000000000000000000084
:10244000000000000000000000000000000000008C
:10245000000000000000000000000000000000007C
:10246000000000000000000000000000000000006C
:10247000000000000000000000000000000000005C
:10248000000000000000000000000000AAAAAAAAA4
:042490000000000048
:04000005080000ED02
:00000001FF
